:020000040000FA
:0600000045EF09F01200BB
:0600080004EF0AF01200F3
:060018000CEF0AF01200DB
:100020000200AC120000B800000004000000A8129A
:0A0030000000B4000000040000000E
:06003A0095929290809067
:1000400092928092929480949296809692988098C0
:10005000929A809A0001636B676968696969666B47
:10006000010E6A6F1200D9CFE6FFE1CFD9FFFD0E76
:10007000DB50A96EA69EA69CA680A850016AF36ECE
:1000800001C0F4FFE552E7CFD9FF1200D9CFE6FF58
:10009000E1CFD9FFFD0EDB50A96EFB0EDB50A86E41
:1000A00000000000A69EA69CA684F29E550EA76E98
:1000B000AA0EA76EA682A6B2FED7F28EA694E5522D
:1000C000E7CFD9FF1200D9CFE6FFE1CFD9FF020E6B
:1000D000E126020EE66EE66AC6DFE552E552010E43
:1000E000F3CFDBFF010EDB042AE1010EE66EE66AC8
:1000F000010EE66EE66ACADFE552E552E552E552C8
:100100000000000000000000FF0EE66EE66A020E2E
:10011000E66EE66ABBDFE552E552E552E5526D92C6
:100120006D6ADF6AFF0EDF5C09E2E868E85004E010
:10013000E80600D000D0FAD7DF2AF4D7FF00020E7D
:10014000E15C02E2E16AE552E16EE552E7CFD9FFF8
:100150001200D9CFE6FFE1CFD9FF030EE12600015F
:1001600063511FE1040108BF1BD0400EE66E700E04
:10017000E66E030EE66EB8EC07F0E552E552E55286
:100180000001010E636FDF6A400EDF5C09E2DF50A1
:10019000EA6AB00FE96E030EEA22EF6ADF2AF4D7AB
:1001A000B6D103017051080A01E180D10F0A01E1C3
:1001B00035D1010A01E11FD1030A01E1C3D0010ACF
:1001C00059E0070A4CE0010A01E0A1D10301020E47
:1001D000B06F03013A0EB16F0301010EB26F03015C
:1001E000010EB36F0301B46B140EB56FB66BB76B32
:1001F0000301B86B6C0EB96FBA6BBB6B0301030ED6
:10020000BC6F0301BD6BBE6B300EBF6FC06B0301D3
:100210000E0EC16FC26BC36BC46B0301010EC56FC1
:100220000301C66BC76B200EC86FC96B0301080EB4
:10023000CA6FCB6BCC6BCD6B0301CE6904010CBFD5
:100240000DD0400EE66EB00EE66E030EE66E88EC44
:1002500007F0E552E552E5520001636B58D1000109
:10026000010E6A6F0301715102E100016A6B000126
:10027000636B4DD1500E0001646F656B0001000E81
:10028000645D020E65591FE2040064C000F065C0A1
:1002900001F0026A060E1F0B00C0F6FF01C0F7FF57
:1002A00002C0F8FF06E0D890F636F736F836E806D2
:1002B000FAE1940EA66EC7D912EC08F00001642B87
:1002C000000E6523DBD70001010EBA1901E1BB5115
:1002D0000EE1000EE66EE66A010EE66EE66AD6DE16
:1002E000E552E552E552E5520001BA6BBB6BF66A86
:1002F000F76A200EF86E940EA66EA5D9000EE66E73
:10030000E66A000EE66EE66AC1DEE552E552E552A7
:10031000E552FF0EE66EE66A010EE66EE66AB6DEAE
:10032000E552E552E552E552000EE66EE66A020E2F
:10033000E66EE66AABDEE552E552E552E5520001B3
:10034000636BE5D0300E0301735D07E100016A5174
:1003500001E151D90001636BDAD0E8680001671947
:1003600005E1E868681902E1E868691906E171C306
:1003700067F072C368F073C369F0670EE96E000E30
:10038000EA6EEE500301711908E1EE500301721993
:1003900004E1EE500301731900E12AE1DF6A030171
:1003A0007551DF5C25E23A0E0301D8807555DF24D4
:1003B000EA6A760FE96E030EEA22EF50E66E00015C
:1003C0006651EA6A6B0FE96E000EEA22E552E750C9
:1003D000EF6E0001662B0001672B000E6823000EF4
:1003E0006923200E0001665D01E19BD8DF2AD7D783
:1003F0000001636B8CD095D80001676968696969F1
:100400000001636B010E0001B86FB96B0001B46BA2
:10041000B56B010E0001BA6FBB6B79D00301070EFB
:10042000B06F71C3B1F372C3B2F373C3B3F374C3E8
:10043000B4F375C3B5F371C3F6FF72C3F7FF73C3AB
:10044000F8FFDF6A03017551DF5C1FE2F00E030164
:10045000735D01E118D00900300EF85C08E1050E6B
:10046000F65C01E1F568080EF65C01E1F5683A0E0C
:100470000301D8807555DF24EA6AB60FE96E030ED2
:10048000EA22F5CFEFFFDF2ADDD704010CBF0DD044
:10049000400EE66EB00EE66E030EE66E88EC07F0D8
:1004A000E552E552E5520001636B31D06D926D6A01
:1004B000DF6AFF0EDF5C09E2E868E85004E0E80666
:1004C00000D000D0FAD7DF2AF4D70001010EBA1904
:1004D00001E1BB511AE1010EE66EE66A010EE66E1D
:1004E000E66AD4DDE552E552E552E552000000002F
:1004F00000000000FF0EE66EE66A020EE66EE66A97
:10050000C5DDE552E552E552E552FF0000D0030E8D
:10051000E15C02E2E16AE552E16EE552E7CFD9FF24
:100520001200D9CFE6FFE1CFD9FF030EE126010E7D
:10053000DB6A66C000F0016A026A00500001675D74
:10054000F66E015000016859F76E025000016959BA
:10055000F86E1F0EF614E76E020EE7CFDBFFE00E1B
:10056000F616DF6A200EDF5C1EE2020EDB5015E19C
:10057000000166510FE0010EDB50EA6A6B0FE96E75
:10058000000EEA22EF50F56E0D00010EDB2A00018D
:10059000660702D0F5680D0004D0F5680D00020E64
:1005A000DB06DF2ADFD70A00A40EA66E4CD8DF6A6E
:1005B00000016651DF5C15E2010EDB50DF24EA6AC0
:1005C0006B0FE96E000EEA22EF50E66EDF50EA6A2A
:1005D0006B0FE96E000EEA22E552E750EF6EDF2A5C
:1005E000E7D7030EE15C02E2E16AE552E16EE55213
:1005F000E7CFD9FF1200D9CFE6FFE1CFD9FFE6520E
:1006000071C3F6FF72C3F7FF73C3F8FFDF6A03011C
:100610007551DF5C13E23A0E0301D8807555DF2473
:10062000EA6A760FE96E030EEA22EF50F56E0C00CF
:10063000C40EA66E08D80900DF2AE9D7E552E552B4
:10064000E7CFD9FF1200F29E550EA76EAA0EA76E35
:0A065000A682A6B2FED7A6941200FF
:06065A006C500CE16896F3
:10066000040100513C0BE842E8420D0802E10AD8BF
:10067000010C3BD8010C040E6C5C03E1689644D875
:10068000010C000C70D9E652040104BF046B000198
:10069000B36BAB6BAC6BB16BB26BC4EC04F0DF6AE9
:1006A000DF50006E016A010E005C000E01581AE274
:1006B0000001AC5117E1F76ADF34FE0BF736F66E36
:1006C000CA0EF626110EF7220900F5CF00F0080039
:1006D000F5CF01F004D001C0FAFF0050F96EFBDF46
:1006E000DF2ADED7ACD8E55243D1020E0001AB5D64
:1006F00009E179D8040100BD02D0C80E01D0880EEE
:10070000006F120058EF04F0040E0301FA5D09E1D6
:1007100012C46EFF6E50000802E2050E01D0030EF7
:10072000FA6F0001AB0510E111D8020E0001B35DB4
:1007300003E10401840E06D0040104BD02D0C80EFA
:1007400001D0880E046F120058EF04F00CD9020E8D
:10075000E1260001080EB15D000EB2590DE2B1C0F4
:10076000DEFFB2C0DDFFB35102E1010E03D0B305DD
:1007700006E1020EB36F03D0080EDE6EDD6A0401DF
:1007800004930491010EDB500413DFCF05F4000E37
:10079000DB500001B15F010EDB50B25B180EAF6F92
:1007A000040EB06F0301FBA30CD0D6D815E0ADC08A
:1007B000F6FFAEC0F7FF0800F550BED8F6E2DB0644
:1007C000F4D7CAD809E0ADC0E9FFAEC0EAFFEF50E8
:1007D000B3D8F7E2DB06F5D7020EE15C02E2E16A8C
:1007E000E552E16EC5D0BFD8020EE126030E04012A
:1007F0000015E76E010EE7CFDBFF01C4DFFFDE501F
:100800000001B127DD50B223180EAD6F040EAE6F9C
:10081000A3D80EE0ADC0E9FFAEC0EAFFEF50AFC015
:10082000E9FFB0C0EAFFEF6EA7D8F2E2DB06F0D72F
:10083000020EE15C02E2E16AE552E16E99D06D9848
:100840000001AC5105E180D8840E006F04011DD079
:10085000040110AF1CD00001B1510401165D00016C
:10086000B2510401175904E216C4B1F017C4B2F032
:100870006DDF0001010EAB6F67D8800E006F0401C1
:10088000180E066F040E076FC80E046F12000001E9
:10089000020EAB6F0401056BC80E046F0401080E55
:1008A000016F180E026F040E036FC80E006F120066
:1008B0005AD8E652020E0001AB5D35E16D50100BC7
:1008C00032E004010151006E016A080E00182BE1AC
:1008D000015029E100513C0BE842E8420D0823E1B8
:1008E0000051800B20E1100E026F040E036FDF6ACF
:1008F000DF50006E016A080E005C000E01581AE21B
:10090000DF50EA6A180FE96E040EEA22EF50E66E35
:10091000DF50EA6A100FE96E040EEA22E552E75052
:10092000EF6EDF2AE5D70001AB6B0ED88C0E006F9F
:100930000401046BE5521CD0AFC0E9FFB0C0EAFF70
:10094000EF6E0001BCEF04F00401080E016F100E01
:10095000026F040E036F1200D9CFE9FFDACFEAFF6E
:10096000EE50ED101200D9CFE6FFE1CFD9FF120013
:10097000E552E7CFD9FF1200AF2B000EB023AD2B0D
:08098000AE23DF06010E120098
:0809880004011051600BE8426C
:10099000E842E842E842E842000901E01200115151
:1009A000070A40E00B0A3EE0070A33E0010A23E0B1
:1009B0000B0A1FE0020A1DE0030A19E0080A10E012
:1009C000010A0CE00F0A08E0030A01E0120012D944
:1009D0000301040EFA6F120013EF05F04AEF05F061
:1009E00009D90001FC0EAD6F030EAE6F0CD065EFA0
:1009F00005F097EF05F002D90001AD6FAE6BFD0E6B
:100A0000AD27030EAE230301FB930001010EB16F6E
:100A10001200F4D8EA6AFD0FE96E030EEA2212C44E
:100A2000EFFF12001200800E0401105D32E113513D
:100A3000030A1FE0010A0AE0030A29E1DBD80001EA
:100A40001C0EAD6F110EAE6F120E1ED0B2D8C00EBE
:100A5000F626110EC0D8020E0001F76AAD25F66E1B
:100A6000AE51F7220900F5CFB1F00A00F5CFB2F090
:100A70000ED09FD8C40EF626110EADD8ADC0F6FF2D
:100A8000AEC0F7FF0800F5500001B16FB26B030173
:100A9000FB831200AFD80F0EE66E710EE66E0F0EDE
:100AA000A2D8010EE66EFD0EE66E030E9CD812C4AF
:100AB000FCF30401125104E10301050EFA6F120068
:100AC0000301060EFA6F73EF07F00401186B196B40
:100AD000040110511F0B020A0FE0030A0BE0010A88
:100AE00018E188D8040118810301FBA112D0040188
:100AF00018830FD07FD80DD050D801E0010E62D8F6
:100B0000AFC0E9FFEA6EEF50040B03E00401010EF1
:100B1000186F0001AC050AE10001180EAD6F040E5C
:100B2000AE6F0301FB930001020EB16F12000401CE
:100B300012050EE110511F0B00090AE15BD8030EEC
:100B40000401115D03E10301FB8102D00301FB916C
:100B50000401125121E110511F0B02081DE1145133
:100B60000F0B000919E019D801E0010E2BD8030E74
:100B70000401115D02E1840E03D014AF07D0400ED2
:100B8000AFC0E9FFB0C0EAFFEF6E1200880EAFC041
:100B9000E9FFB0C0EAFFEF6E120030D80F0B080D6E
:100BA000F350016A000F006E040E01221451800BF5
:100BB000120020D804011251F66EF76AD890F6366A
:100BC000F7361200040DF35000010024AF6F000E41
:100BD0000120B06F1200F7220900F5CFADF00A0036
:100BE000F5CFAEF01200E66E79EC08F0E552E55272
:100BF000E55212000001010EAC6F1200FBDF040190
:040C00001451120079
:0C0C0400D9CFE6FFE1CFD9FFD950FD0F9A
:100C1000E96EFF0EDA20EA6E000ED880EE54000E68
:100C2000ED5411E2FD0EDB06FE0E01E2DB06D8D824
:100C3000DBD8060E0301FA5DE9E16D50020BE6E137
:100C4000A9EC00F0E3D7E552E7CFD9FF1200D9CFE6
:100C5000E6FFE1CFD9FF020EE126958A9384000ECC
:100C6000E66EE66A33EC00F0E552E552010EF3CF92
:100C7000DBFF010EE66EE66A33EC00F0E552E5526A
:100C8000F350DF6E020EE66EE66A33EC00F0E552DA
:100C9000E552F350A86EFF0EDF5C34E1FF0EA85C56
:100CA00031E1010EDB50FF082DE1000EE66EE66A31
:100CB000000EE66EE66A46EC00F0E552E552E552BB
:100CC000E552010EE66EE66A010EE66EE66A46EC55
:100CD00000F0E552E552E552E552FF0EE66EE66A97
:100CE000020EE66EE66A46EC00F0E552E552E55289
:100CF000E552010EE66EE66A33EC00F0E552E5528D
:100D0000F350DF6EDF0405E18350200B02E000EFBB
:100D10000AF0020EE66EE66A33EC00F0E552E552A8
:100D2000F350DF6EDF0405E1010E0001BA6FBB6B0B
:100D300003D00001BA6BBB6B49D88150040B08E1AA
:100D40000001010EBA1901E1BB5102E163EC00F0B0
:100D50000400500EE66EC30EE66E54DFE552E55217
:100D6000500EE66EC30EE66E4DDFE552E552000111
:100D7000B42B000EB5230001B90EB41901E1B55131
:100D800005E163EC00F00001B46BB56B0001010EEE
:100D9000B81901E1B9510FE1010EE66EE66A020EE3
:100DA000E66EE66A46EC00F0E552E552E552E552A1
:100DB0000001B86BB96BCCD7020EE15C02E2E16ACC
:100DC000E552E16EE552E7CFD9FF1200140E6F6EC7
:100DD0000301FA6B0301FB6B0301FC6B1DEF00F0D9
:100DE000FDEC07F012EF08F00001B651B71104E175
:100DF000100EB66F270EB76FB607000EB75B060E64
:100E00000301FA5D01E212000001B651B71101E1E0
:040E10008C721200CE
:0C0E1400040110511F0B010801E0120046
:100E2000145101E01200060E115D24E11351230A52
:100E30001FE0010A0DE0030A1BE1DBD80301FC05FA
:100E400005E10001400EAD6F110EAE6F090E0DD021
:100E5000D0D80301FC0505E10001A30EAD6F110E12
:100E6000AE6F0301FC0504E11D0E0001B16FB26B12
:100E70000301FB8304011051600BE842E842E842A1
:100E8000E842E842010801E0120011510B0A25E096
:100E9000080A17E0090A11E0080A09E00B0A05E050
:100EA000080A01E0120071EF07F072EF07F0A1D815
:100EB0000001BC0EAD6F000E09D09BD813C4BCF06E
:100EC000120097D80001BD0EAD6F000EAE6F03018A
:100ED000FB930001010EB16F12008BD812C4BDF05C
:100EE0001200120012000001BE6B1E0E716E040192
:100EF000400E096F200E0A6F040E0B6F880E086FEC
:100F00000401600E0E6F040E0F6F400E0C6F120086
:100F1000D9CFE6FFE1CFD9FFE652FC0EDB50400807
:100F200005E2400EF36EFC0EF3CFDBFFDF6AFC0E32
:100F3000DB50DF5C0FE2DF5050D8EF50E66EDF5041
:100F4000EA6A600FE96E040EEA22E552E750EF6E9E
:100F5000DF2AEDD7FC0EDBCF0DF4400E04010C1799
:100F60000C7D880E0C13E552E552E7CFD9FF120035
:100F7000D9CFE6FFE1CFD9FF0001BE6B040108BF66
:100F800026D0FC0EDBCF00F00951D880005403E2DC
:100F9000FC0E09C4DBFF0001BE6BFC0EDB50BE5D26
:100FA0000FE2BE51EA6A200FE96E040EEA22EF500A
:100FB000E66EBE5112D8E552E750EF6EBE2BEDD76C
:100FC0000401400E096F0817087D880E0813000100
:100FD000BE51E552E7CFD9FF1200E76EFD0EDBCF21
:100FE000E9FFFE0EDBCFEAFFE750E926000EEA221A
:0A0FF00012000001020EAC6F1200A7
:060FFA006DA60CD80301F6
:10100000FA0508E16DBA06D0686A696A698069887C
:10101000020EFA6F12006D6A696A6D860301010E95
:10102000FA6F12000301FA5101E1120068B425D8E9
:101030006DB2120068B038D868B817D868BA24D82A
:10104000030E0301FA5D01E212000301FE6B040EC0
:10105000FE5D0AE268A608D02DEC03F0000901E16C
:1010600068960301FE2BF3D71200698468986D829D
:10107000A19AA08A0300A09A12006D92699468A4B4
:1010800002D06894FCD7120070A00CD0800E04012E
:10109000005D07E1840E0401045D03E104018C0E90
:1010A000006F7090689A12006A6A686A9F0E6B6E91
:1010B0007B0E696E6E6A0F0EE66E710EE66E0F0E97
:1010C000E66E17D8E552E552E552160E706E68A628
:1010D00005D0689600D000D00000F9D76D9858EC84
:1010E00004F00301FB910301FC6B0301030EFA6F93
:1010F0001200D9CFE6FFE1CFD9FFFD0EDBCFE9FF2C
:10110000FE0EDBCFEAFFFC0EDB5004E0EE6AFC0EC5
:0C111000DB06F9D7E552E7CFD9FF12004B
:04111C0012010002BA
:10112000000000087B20010002000102000109020A
:101130002900010100C03209040000020300000080
:10114000092111010001221D000705810340000152
:1011500007050103400001040309041E0354004570
:1011600000430048004E004500540049005800204C
:101170000042002E0056002E002A0355004E004962
:1011800000560045005200530041004C0020004230
:10119000004F004F0054004C004F004100440045F8
:1011A0000052000600FF0901A101190129401500A4
:1011B00026FF00750895408102190129409102C05F
:0C11C0002E112E1157115B117911140E25
:0411CC00200EF66E8D
:1011D000000EF76E000EF86E03010900F550F56F72
:1011E0000900F550F66F03E1F56701D03DD0090025
:1011F000F550F06F0900F550F16F0900F550F26FEE
:1012000009000900F550E96E0900F550EA6E090081
:1012100009000900F550F36F0900F550F46F09005B
:101220000900F6CFF7F3F7CFF8F3F8CFF9F3F0C3EF
:10123000F6FFF1C3F7FFF2C3F8FF0301F35302E136
:10124000F45307E00900F550EE6EF307F8E2F407F7
:10125000F9D7F7C3F6FFF8C3F7FFF9C3F8FF0301A7
:0A126000F507000EF65BBFD7120081
:06126A00000EF36E00EE21
:1012700000F0040E01D81200EA6002D0EE6AFCD73A
:0A128000F350E9601200EE6AFCD79B
:06128A0013EE00F023EE5C
:1012900000F0F86A049CE6EC08F053EC09F027EC47
:0612A00006F0FBD712006E
:0212A600120034
:0412A8000000000042
:0412AC00000000003E
:020000040030CA
:0100000024DB
:010001000EF0
:0100020021DC
:010003001EDE
:010005008179
:010006008178
:0100080000F7
:010009008076
:01000A000FE6
:01000B00E014
:01000C000FE4
:01000D0040B2
:00000001FF
