MPLINK 4.37, Linker
Linker Map File - Created Fri Feb 22 14:38:52 2019

                                 Section Info
                  Section       Type    Address   Location Size(Bytes)
                ---------  ---------  ---------  ---------  ---------
               _entry_scn       code   0x000000    program   0x000006
              high_vector       code   0x000008    program   0x000006
               low_vector       code   0x000018    program   0x000006
                   .cinit    romdata   0x000020    program   0x00001a
    .code_BootPIC18NonJ.o       code   0x00003a    program   0x000620
       .code_usbctrltrf.o       code   0x00065a    program   0x00032e
             .code_usb9.o       code   0x000988    program   0x00027c
             .code_main.o       code   0x000c04    program   0x000210
              .code_hid.o       code   0x000e14    program   0x0001e6
           .code_usbdrv.o       code   0x000ffa    program   0x000122
        .romdata_usbdsc.o    romdata   0x00111c    program   0x0000b0
               _cinit_scn       code   0x0011cc    program   0x00009e
                    .code       code   0x00126a    program   0x000020
             _startup_scn       code   0x00128a    program   0x00001c
           .code___init.o       code   0x0012a6    program   0x000002
          .romdata_usb9.o    romdata   0x0012a8    program   0x000000
          .idata_usb9.o_i    romdata   0x0012a8    program   0x000000
    .idata_usbctrltrf.o_i    romdata   0x0012a8    program   0x000000
    .romdata_usbctrltrf.o    romdata   0x0012a8    program   0x000000
        .romdata___init.o    romdata   0x0012a8    program   0x000000
        .idata_usbdrv.o_i    romdata   0x0012a8    program   0x000000
        .romdata_usbdrv.o    romdata   0x0012a8    program   0x000000
 .romdata_BootPIC18NonJ.o    romdata   0x0012a8    program   0x000000
        .idata_usbdsc.o_i    romdata   0x0012a8    program   0x000000
       .idata_usbmmap.o_i    romdata   0x0012a8    program   0x000000
       .romdata_usbmmap.o    romdata   0x0012a8    program   0x000000
           .romdata_hid.o    romdata   0x0012a8    program   0x000000
          .idata_main.o_i    romdata   0x0012a8    program   0x000004
         .romdata_c018i.o    romdata   0x0012a8    program   0x000000
          .romdata_main.o    romdata   0x0012a8    program   0x000000
        .idata___init.o_i    romdata   0x0012ac    program   0x000000
         .idata_c018i.o_i    romdata   0x0012ac    program   0x000000
 .idata_BootPIC18NonJ.o_i    romdata   0x0012ac    program   0x000004
           .idata_hid.o_i    romdata   0x0012ac    program   0x000000
            .code_c018i.o       code   0x0012b0    program   0x000000
          .code_usbmmap.o       code   0x0012b0    program   0x000000
           .code_usbdsc.o       code   0x0012b0    program   0x000000
    .config_300000_main.o    romdata   0x300000    program   0x000001
    .config_300001_main.o    romdata   0x300001    program   0x000001
    .config_300002_main.o    romdata   0x300002    program   0x000001
    .config_300003_main.o    romdata   0x300003    program   0x000001
    .config_300005_main.o    romdata   0x300005    program   0x000001
    .config_300006_main.o    romdata   0x300006    program   0x000001
    .config_300008_main.o    romdata   0x300008    program   0x000001
    .config_300009_main.o    romdata   0x300009    program   0x000001
    .config_30000a_main.o    romdata   0x30000a    program   0x000001
    .config_30000b_main.o    romdata   0x30000b    program   0x000001
    .config_30000c_main.o    romdata   0x30000c    program   0x000001
    .config_30000d_main.o    romdata   0x30000d    program   0x000001
                 .tmpdata      udata   0x000000       data   0x000003
                MATH_DATA      udata   0x000003       data   0x000002
         SomeSectionName1      udata   0x000060       data   0x00004b
      .udata_usbctrltrf.o      udata   0x0000ab       data   0x000009
            .idata_main.o      idata   0x0000b4       data   0x000004
   .idata_BootPIC18NonJ.o      idata   0x0000b8       data   0x000004
             .udata_hid.o      udata   0x0000bc       data   0x000003
                   .stack      udata   0x000300       data   0x000070
         SomeSectionName2      udata   0x000370       data   0x000080
           .udata_c018i.o      udata   0x0003f0       data   0x00000a
         .udata_usbmmap.o      udata   0x0003fa       data   0x000004
          .udata_usbdrv.o      udata   0x0003fe       data   0x000001
             .idata_hid.o      idata   0x0003ff       data   0x000000
          .idata___init.o      idata   0x0003ff       data   0x000000
          .udata___init.o      udata   0x0003ff       data   0x000000
         .idata_usbmmap.o      idata   0x0003ff       data   0x000000
          .idata_usbdsc.o      idata   0x0003ff       data   0x000000
          .udata_usbdsc.o      udata   0x0003ff       data   0x000000
          .idata_usbdrv.o      idata   0x0003ff       data   0x000000
      .idata_usbctrltrf.o      idata   0x0003ff       data   0x000000
           .idata_c018i.o      idata   0x0003ff       data   0x000000
            .idata_usb9.o      idata   0x0003ff       data   0x000000
            .udata_usb9.o      udata   0x0003ff       data   0x000000
   .udata_BootPIC18NonJ.o      udata   0x0003ff       data   0x000000
            .udata_main.o      udata   0x0003ff       data   0x000000
                     usb4      udata   0x000400       data   0x0000a0
            SFR_UNBANKED0      udata   0x000f62       data   0x00009e



                              Program Memory Usage 
                               Start         End      
                           ---------   ---------      
                            0x000000    0x000005      
                            0x000008    0x00000d      
                            0x000018    0x00001d      
                            0x000020    0x0012af      
                            0x300000    0x300003      
                            0x300005    0x300006      
                            0x300008    0x30000d      
            4782 out of 33048 program addresses used, program memory utilization is 14%



                              Symbols - Sorted by Name
                     Name    Address   Location    Storage File                     
                ---------  ---------  ---------  --------- ---------                
           BlinkUSBStatus   0x000de8    program     extern C:\DBC-1200 LITE\FINAL\UNIVERSAL BOOTLOADER\Bootloader Source\UNIFIED\PIC18F4550_UNIFIED\UNI_BL_4550\main.c
BootloaderUSBReceiveLoopDelay   0x000c04    program     extern C:\DBC-1200 LITE\FINAL\UNIVERSAL BOOTLOADER\Bootloader Source\UNIFIED\PIC18F4550_UNIFIED\UNI_BL_4550\main.c
          ClassReqHandler   0x0011ca    program     extern C:\DBC-1200 LITE\FINAL\UNIVERSAL BOOTLOADER\Bootloader Source\UNIFIED\PIC18F4550_UNIFIED\UNI_BL_4550\usbdsc.c
               ClearArray   0x0010f2    program     extern C:\DBC-1200 LITE\FINAL\UNIVERSAL BOOTLOADER\Bootloader Source\UNIFIED\PIC18F4550_UNIFIED\UNI_BL_4550\usbdrv.c
ClearEEPROMBootloaderFlag   0x0000c6    program     extern C:\DBC-1200 LITE\FINAL\UNIVERSAL BOOTLOADER\Bootloader Source\UNIFIED\PIC18F4550_UNIFIED\UNI_BL_4550\BootPIC18NonJ.c
      HIDGetReportHandler   0x000ee2    program     extern C:\DBC-1200 LITE\FINAL\UNIVERSAL BOOTLOADER\Bootloader Source\UNIFIED\PIC18F4550_UNIFIED\UNI_BL_4550\hid.c
                HIDInitEP   0x000ee6    program     extern C:\DBC-1200 LITE\FINAL\UNIVERSAL BOOTLOADER\Bootloader Source\UNIFIED\PIC18F4550_UNIFIED\UNI_BL_4550\hid.c
              HIDRxReport   0x000f70    program     extern C:\DBC-1200 LITE\FINAL\UNIVERSAL BOOTLOADER\Bootloader Source\UNIFIED\PIC18F4550_UNIFIED\UNI_BL_4550\hid.c
      HIDSetReportHandler   0x000ee4    program     extern C:\DBC-1200 LITE\FINAL\UNIVERSAL BOOTLOADER\Bootloader Source\UNIFIED\PIC18F4550_UNIFIED\UNI_BL_4550\hid.c
              HIDTxReport   0x000f10    program     extern C:\DBC-1200 LITE\FINAL\UNIVERSAL BOOTLOADER\Bootloader Source\UNIFIED\PIC18F4550_UNIFIED\UNI_BL_4550\hid.c
         InitializeSystem   0x000dcc    program     static C:\DBC-1200 LITE\FINAL\UNIVERSAL BOOTLOADER\Bootloader Source\UNIFIED\PIC18F4550_UNIFIED\UNI_BL_4550\main.c
                ProcessIO   0x000152    program     extern C:\DBC-1200 LITE\FINAL\UNIVERSAL BOOTLOADER\Bootloader Source\UNIFIED\PIC18F4550_UNIFIED\UNI_BL_4550\BootPIC18NonJ.c
               ReadEEPROM   0x000066    program     extern C:\DBC-1200 LITE\FINAL\UNIVERSAL BOOTLOADER\Bootloader Source\UNIFIED\PIC18F4550_UNIFIED\UNI_BL_4550\BootPIC18NonJ.c
        USBCheckBusStatus   0x000ffa    program     extern C:\DBC-1200 LITE\FINAL\UNIVERSAL BOOTLOADER\Bootloader Source\UNIFIED\PIC18F4550_UNIFIED\UNI_BL_4550\usbdrv.c
       USBCheckHIDRequest   0x000e14    program     extern C:\DBC-1200 LITE\FINAL\UNIVERSAL BOOTLOADER\Bootloader Source\UNIFIED\PIC18F4550_UNIFIED\UNI_BL_4550\hid.c
       USBCheckStdRequest   0x000988    program     extern C:\DBC-1200 LITE\FINAL\UNIVERSAL BOOTLOADER\Bootloader Source\UNIFIED\PIC18F4550_UNIFIED\UNI_BL_4550\usb9.c
         USBCtrlEPService   0x00065a    program     extern C:\DBC-1200 LITE\FINAL\UNIVERSAL BOOTLOADER\Bootloader Source\UNIFIED\PIC18F4550_UNIFIED\UNI_BL_4550\usbctrltrf.c
 USBCtrlEPServiceComplete   0x00083e    program     extern C:\DBC-1200 LITE\FINAL\UNIVERSAL BOOTLOADER\Bootloader Source\UNIFIED\PIC18F4550_UNIFIED\UNI_BL_4550\usbctrltrf.c
      USBCtrlTrfInHandler   0x000708    program     extern C:\DBC-1200 LITE\FINAL\UNIVERSAL BOOTLOADER\Bootloader Source\UNIFIED\PIC18F4550_UNIFIED\UNI_BL_4550\usbctrltrf.c
     USBCtrlTrfOutHandler   0x0006ea    program     extern C:\DBC-1200 LITE\FINAL\UNIVERSAL BOOTLOADER\Bootloader Source\UNIFIED\PIC18F4550_UNIFIED\UNI_BL_4550\usbctrltrf.c
      USBCtrlTrfRxService   0x0007e6    program     extern C:\DBC-1200 LITE\FINAL\UNIVERSAL BOOTLOADER\Bootloader Source\UNIFIED\PIC18F4550_UNIFIED\UNI_BL_4550\usbctrltrf.c
   USBCtrlTrfSetupHandler   0x000684    program     extern C:\DBC-1200 LITE\FINAL\UNIVERSAL BOOTLOADER\Bootloader Source\UNIFIED\PIC18F4550_UNIFIED\UNI_BL_4550\usbctrltrf.c
      USBCtrlTrfTxService   0x00074c    program     extern C:\DBC-1200 LITE\FINAL\UNIVERSAL BOOTLOADER\Bootloader Source\UNIFIED\PIC18F4550_UNIFIED\UNI_BL_4550\usbctrltrf.c
         USBDriverService   0x001024    program     extern C:\DBC-1200 LITE\FINAL\UNIVERSAL BOOTLOADER\Bootloader Source\UNIFIED\PIC18F4550_UNIFIED\UNI_BL_4550\usbdrv.c
          USBModuleEnable   0x001016    program     extern C:\DBC-1200 LITE\FINAL\UNIVERSAL BOOTLOADER\Bootloader Source\UNIFIED\PIC18F4550_UNIFIED\UNI_BL_4550\usbdrv.c
USBPrepareForNextSetupTrf   0x0008b0    program     extern C:\DBC-1200 LITE\FINAL\UNIVERSAL BOOTLOADER\Bootloader Source\UNIFIED\PIC18F4550_UNIFIED\UNI_BL_4550\usbctrltrf.c
  USBProtocolResetHandler   0x0010a8    program     extern C:\DBC-1200 LITE\FINAL\UNIVERSAL BOOTLOADER\Bootloader Source\UNIFIED\PIC18F4550_UNIFIED\UNI_BL_4550\usbdrv.c
          USBStallHandler   0x001088    program     extern C:\DBC-1200 LITE\FINAL\UNIVERSAL BOOTLOADER\Bootloader Source\UNIFIED\PIC18F4550_UNIFIED\UNI_BL_4550\usbdrv.c
  USBStdFeatureReqHandler   0x000b2e    program     extern C:\DBC-1200 LITE\FINAL\UNIVERSAL BOOTLOADER\Bootloader Source\UNIFIED\PIC18F4550_UNIFIED\UNI_BL_4550\usb9.c
      USBStdGetDscHandler   0x000a26    program     extern C:\DBC-1200 LITE\FINAL\UNIVERSAL BOOTLOADER\Bootloader Source\UNIFIED\PIC18F4550_UNIFIED\UNI_BL_4550\usb9.c
   USBStdGetStatusHandler   0x000aca    program     extern C:\DBC-1200 LITE\FINAL\UNIVERSAL BOOTLOADER\Bootloader Source\UNIFIED\PIC18F4550_UNIFIED\UNI_BL_4550\usb9.c
      USBStdSetCfgHandler   0x000a94    program     extern C:\DBC-1200 LITE\FINAL\UNIVERSAL BOOTLOADER\Bootloader Source\UNIFIED\PIC18F4550_UNIFIED\UNI_BL_4550\usb9.c
               USBSuspend   0x00106a    program     extern C:\DBC-1200 LITE\FINAL\UNIVERSAL BOOTLOADER\Bootloader Source\UNIFIED\PIC18F4550_UNIFIED\UNI_BL_4550\usbdrv.c
                 USBTasks   0x000de0    program     extern C:\DBC-1200 LITE\FINAL\UNIVERSAL BOOTLOADER\Bootloader Source\UNIFIED\PIC18F4550_UNIFIED\UNI_BL_4550\main.c
       USBWakeFromSuspend   0x00107a    program     extern C:\DBC-1200 LITE\FINAL\UNIVERSAL BOOTLOADER\Bootloader Source\UNIFIED\PIC18F4550_UNIFIED\UNI_BL_4550\usbdrv.c
               USB_CD_Ptr   0x0011c0    program     extern C:\DBC-1200 LITE\FINAL\UNIVERSAL BOOTLOADER\Bootloader Source\UNIFIED\PIC18F4550_UNIFIED\UNI_BL_4550\usbdsc.c
               USB_SD_Ptr   0x0011c4    program     extern C:\DBC-1200 LITE\FINAL\UNIVERSAL BOOTLOADER\Bootloader Source\UNIFIED\PIC18F4550_UNIFIED\UNI_BL_4550\usbdsc.c
        UnlockAndActivate   0x000646    program     extern C:\DBC-1200 LITE\FINAL\UNIVERSAL BOOTLOADER\Bootloader Source\UNIFIED\PIC18F4550_UNIFIED\UNI_BL_4550\BootPIC18NonJ.c
                 UserInit   0x00003a    program     extern C:\DBC-1200 LITE\FINAL\UNIVERSAL BOOTLOADER\Bootloader Source\UNIFIED\PIC18F4550_UNIFIED\UNI_BL_4550\BootPIC18NonJ.c
          WriteConfigBits   0x0005f6    program     extern C:\DBC-1200 LITE\FINAL\UNIVERSAL BOOTLOADER\Bootloader Source\UNIFIED\PIC18F4550_UNIFIED\UNI_BL_4550\BootPIC18NonJ.c
          WriteFlashBlock   0x000522    program     extern C:\DBC-1200 LITE\FINAL\UNIVERSAL BOOTLOADER\Bootloader Source\UNIFIED\PIC18F4550_UNIFIED\UNI_BL_4550\BootPIC18NonJ.c
            WriteToEEPROM   0x00008c    program     extern C:\DBC-1200 LITE\FINAL\UNIVERSAL BOOTLOADER\Bootloader Source\UNIFIED\PIC18F4550_UNIFIED\UNI_BL_4550\BootPIC18NonJ.c
       ___case_2_lbl00019   0x0001cc    program     static                          
       ___case_3_lbl00021   0x00025e    program     static                          
       ___case_4_lbl00026   0x000274    program     static                          
       ___case_5_lbl00035   0x000344    program     static                          
       ___case_6_lbl00036   0x0003f6    program     static                          
       ___case_7_lbl00046   0x00041c    program     static                          
       ___case_8_lbl00053   0x0004ac    program     static                          
         ___else_lbl00014   0x000d32    program     static                          
         ___else_lbl00043   0x000456    program     static                          
         ___else_lbl00055   0x0001a2    program     static                          
         ___else_lbl00060   0x000594    program     static                          
         ___else_lbl00062   0x00059a    program     static                          
          ___for_lbl00006   0x000138    program     static                          
          ___for_lbl00007   0x00013c    program     static                          
          ___for_lbl00010   0x000124    program     static                          
          ___for_lbl00013   0x00019c    program     static                          
          ___for_lbl00014   0x0001a0    program     static                          
          ___for_lbl00015   0x000188    program     static                          
          ___for_lbl00022   0x0002bc    program     static                          
          ___for_lbl00023   0x0002c6    program     static                          
          ___for_lbl00024   0x00027c    program     static                          
          ___for_lbl00030   0x0003ec    program     static                          
          ___for_lbl00031   0x0003f0    program     static                          
          ___for_lbl00033   0x00039e    program     static                          
          ___for_lbl00037   0x000486    program     static                          
          ___for_lbl00038   0x00048a    program     static                          
          ___for_lbl00044   0x000444    program     static                          
          ___for_lbl00047   0x0004c6    program     static                          
          ___for_lbl00048   0x0004ca    program     static                          
          ___for_lbl00051   0x0004b2    program     static                          
          ___for_lbl00057   0x0005a2    program     static                          
          ___for_lbl00058   0x0005a6    program     static                          
          ___for_lbl00063   0x000564    program     static                          
          ___for_lbl00064   0x0005de    program     static                          
          ___for_lbl00065   0x0005e2    program     static                          
          ___for_lbl00066   0x0005b0    program     static                          
          ___for_lbl00068   0x000638    program     static                          
          ___for_lbl00069   0x00063c    program     static                          
          ___for_lbl00070   0x00060e    program     static                          
           ___if_lbl00010   0x000d04    program     static                          
           ___if_lbl00011   0x00013e    program     static                          
           ___if_lbl00012   0x000d12    program     static                          
           ___if_lbl00013   0x000d38    program     static                          
           ___if_lbl00016   0x000d50    program     static                          
           ___if_lbl00016   0x0001a0    program     static                          
           ___if_lbl00018   0x00025c    program     static                          
           ___if_lbl00019   0x000d8c    program     static                          
           ___if_lbl00020   0x00026e    program     static                          
           ___if_lbl00020   0x000db6    program     static                          
           ___if_lbl00025   0x0002ee    program     static                          
           ___if_lbl00027   0x000354    program     static                          
           ___if_lbl00028   0x00035a    program     static                          
           ___if_lbl00029   0x00037a    program     static                          
           ___if_lbl00032   0x0003ec    program     static                          
           ___if_lbl00034   0x0003f0    program     static                          
           ___if_lbl00039   0x000466    program     static                          
           ___if_lbl00040   0x00046e    program     static                          
           ___if_lbl00041   0x00046e    program     static                          
           ___if_lbl00042   0x000486    program     static                          
           ___if_lbl00045   0x0004aa    program     static                          
           ___if_lbl00052   0x00050a    program     static                          
           ___if_lbl00054   0x00050e    program     static                          
           ___if_lbl00059   0x000598    program     static                          
           ___if_lbl00061   0x0005a2    program     static                          
       ___return_lbl00000   0x000004    program     static                          
       ___return_lbl00000   0x00000c    program     static                          
       ___return_lbl00001   0x0012a4    program     static                          
       ___return_lbl00001   0x00001c    program     static                          
       ___return_lbl00002   0x001268    program     static                          
       ___return_lbl00002   0x0000be    program     static                          
       ___return_lbl00005   0x00013e    program     static                          
       ___return_lbl00007   0x000db8    program     static                          
       ___return_lbl00012   0x00050e    program     static                          
       ___return_lbl00019   0x001078    program     static                          
       ___return_lbl00027   0x0010f0    program     static                          
       ___return_lbl00030   0x001114    program     static                          
       ___return_lbl00056   0x0005e2    program     static                          
       ___return_lbl00067   0x00063c    program     static                          
       ___return_lbl00071   0x000658    program     static                          
   ___switchexit_lbl00017   0x00050e    program     static                          
        ___while_lbl00003   0x0000b6    program     static                          
        ___while_lbl00004   0x0000ba    program     static                          
        ___while_lbl00008   0x00012c    program     static                          
        ___while_lbl00009   0x000138    program     static                          
        ___while_lbl00017   0x000d50    program     static                          
        ___while_lbl00018   0x000db8    program     static                          
        ___while_lbl00028   0x0010ce    program     static                          
        ___while_lbl00029   0x0010dc    program     static                          
        ___while_lbl00031   0x001106    program     static                          
        ___while_lbl00032   0x001114    program     static                          
        ___while_lbl00049   0x0004ba    program     static                          
        ___while_lbl00050   0x0004c6    program     static                          
        ___while_lbl00072   0x000652    program     static                          
        ___while_lbl00073   0x000656    program     static                          
               __config_0   0x300000    program     static C:\DBC-1200 LITE\FINAL\UNIVERSAL BOOTLOADER\Bootloader Source\UNIFIED\PIC18F4550_UNIFIED\UNI_BL_4550\main.c
               __config_1   0x300001    program     static C:\DBC-1200 LITE\FINAL\UNIVERSAL BOOTLOADER\Bootloader Source\UNIFIED\PIC18F4550_UNIFIED\UNI_BL_4550\main.c
              __config_10   0x30000c    program     static C:\DBC-1200 LITE\FINAL\UNIVERSAL BOOTLOADER\Bootloader Source\UNIFIED\PIC18F4550_UNIFIED\UNI_BL_4550\main.c
              __config_11   0x30000d    program     static C:\DBC-1200 LITE\FINAL\UNIVERSAL BOOTLOADER\Bootloader Source\UNIFIED\PIC18F4550_UNIFIED\UNI_BL_4550\main.c
               __config_2   0x300002    program     static C:\DBC-1200 LITE\FINAL\UNIVERSAL BOOTLOADER\Bootloader Source\UNIFIED\PIC18F4550_UNIFIED\UNI_BL_4550\main.c
               __config_3   0x300003    program     static C:\DBC-1200 LITE\FINAL\UNIVERSAL BOOTLOADER\Bootloader Source\UNIFIED\PIC18F4550_UNIFIED\UNI_BL_4550\main.c
               __config_4   0x300005    program     static C:\DBC-1200 LITE\FINAL\UNIVERSAL BOOTLOADER\Bootloader Source\UNIFIED\PIC18F4550_UNIFIED\UNI_BL_4550\main.c
               __config_5   0x300006    program     static C:\DBC-1200 LITE\FINAL\UNIVERSAL BOOTLOADER\Bootloader Source\UNIFIED\PIC18F4550_UNIFIED\UNI_BL_4550\main.c
               __config_6   0x300008    program     static C:\DBC-1200 LITE\FINAL\UNIVERSAL BOOTLOADER\Bootloader Source\UNIFIED\PIC18F4550_UNIFIED\UNI_BL_4550\main.c
               __config_7   0x300009    program     static C:\DBC-1200 LITE\FINAL\UNIVERSAL BOOTLOADER\Bootloader Source\UNIFIED\PIC18F4550_UNIFIED\UNI_BL_4550\main.c
               __config_8   0x30000a    program     static C:\DBC-1200 LITE\FINAL\UNIVERSAL BOOTLOADER\Bootloader Source\UNIFIED\PIC18F4550_UNIFIED\UNI_BL_4550\main.c
               __config_9   0x30000b    program     static C:\DBC-1200 LITE\FINAL\UNIVERSAL BOOTLOADER\Bootloader Source\UNIFIED\PIC18F4550_UNIFIED\UNI_BL_4550\main.c
                   __init   0x0012a6    program     extern C:\MCC18\src\traditional\stdclib\__init.c
                   __pa_0   0x000fda    program     static C:\DBC-1200 LITE\FINAL\UNIVERSAL BOOTLOADER\Bootloader Source\UNIFIED\PIC18F4550_UNIFIED\UNI_BL_4550\hid.c
                   __pa_0   0x000b9a    program     static C:\DBC-1200 LITE\FINAL\UNIVERSAL BOOTLOADER\Bootloader Source\UNIFIED\PIC18F4550_UNIFIED\UNI_BL_4550\usb9.c
                   __pa_0   0x000938    program     static C:\DBC-1200 LITE\FINAL\UNIVERSAL BOOTLOADER\Bootloader Source\UNIFIED\PIC18F4550_UNIFIED\UNI_BL_4550\usbctrltrf.c
                   __pa_1   0x000ff2    program     static C:\DBC-1200 LITE\FINAL\UNIVERSAL BOOTLOADER\Bootloader Source\UNIFIED\PIC18F4550_UNIFIED\UNI_BL_4550\hid.c
                   __pa_1   0x000bb2    program     static C:\DBC-1200 LITE\FINAL\UNIVERSAL BOOTLOADER\Bootloader Source\UNIFIED\PIC18F4550_UNIFIED\UNI_BL_4550\usb9.c
                   __pa_1   0x000948    program     static C:\DBC-1200 LITE\FINAL\UNIVERSAL BOOTLOADER\Bootloader Source\UNIFIED\PIC18F4550_UNIFIED\UNI_BL_4550\usbctrltrf.c
                   __pa_2   0x000bc4    program     static C:\DBC-1200 LITE\FINAL\UNIVERSAL BOOTLOADER\Bootloader Source\UNIFIED\PIC18F4550_UNIFIED\UNI_BL_4550\usb9.c
                   __pa_2   0x000958    program     static C:\DBC-1200 LITE\FINAL\UNIVERSAL BOOTLOADER\Bootloader Source\UNIFIED\PIC18F4550_UNIFIED\UNI_BL_4550\usbctrltrf.c
                   __pa_3   0x000bd6    program     static C:\DBC-1200 LITE\FINAL\UNIVERSAL BOOTLOADER\Bootloader Source\UNIFIED\PIC18F4550_UNIFIED\UNI_BL_4550\usb9.c
                   __pa_3   0x000966    program     static C:\DBC-1200 LITE\FINAL\UNIVERSAL BOOTLOADER\Bootloader Source\UNIFIED\PIC18F4550_UNIFIED\UNI_BL_4550\usbctrltrf.c
                   __pa_4   0x000970    program     static C:\DBC-1200 LITE\FINAL\UNIVERSAL BOOTLOADER\Bootloader Source\UNIFIED\PIC18F4550_UNIFIED\UNI_BL_4550\usbctrltrf.c
                   __pa_4   0x000be6    program     static C:\DBC-1200 LITE\FINAL\UNIVERSAL BOOTLOADER\Bootloader Source\UNIFIED\PIC18F4550_UNIFIED\UNI_BL_4550\usb9.c
                   __pa_5   0x000978    program     static C:\DBC-1200 LITE\FINAL\UNIVERSAL BOOTLOADER\Bootloader Source\UNIFIED\PIC18F4550_UNIFIED\UNI_BL_4550\usbctrltrf.c
                   __pa_5   0x000bf4    program     static C:\DBC-1200 LITE\FINAL\UNIVERSAL BOOTLOADER\Bootloader Source\UNIFIED\PIC18F4550_UNIFIED\UNI_BL_4550\usb9.c
                   __pa_6   0x000bfc    program     static C:\DBC-1200 LITE\FINAL\UNIVERSAL BOOTLOADER\Bootloader Source\UNIFIED\PIC18F4550_UNIFIED\UNI_BL_4550\usb9.c
               __tmplbl_0   0x00036c    program     static                          
               __tmplbl_1   0x00039a    program     static                          
               __tmplbl_2   0x000caa    program     static                          
               __tmplbl_3   0x000ca2    program     static                          
               __tmplbl_4   0x000c9c    program     static                          
               __tmplbl_5   0x000d0e    program     static                          
               __tmplbl_6   0x000d08    program     static                          
               __tmplbl_7   0x000d4c    program     static                          
               __tmplbl_8   0x000d40    program     static                          
            __zero_memory   0x00126a    program     extern C:\MCC18\src\traditional\proc\p18F4550.asm
                _do_cinit   0x0011cc    program     extern C:\MCC18\src\traditional\startup\c018i.c
                   _entry   0x000000    program     extern C:\MCC18\src\traditional\startup\c018i.c
                 _startup   0x00128a    program     extern C:\MCC18\src\traditional\startup\c018i.c
                    cfg01   0x00112e    program     extern C:\DBC-1200 LITE\FINAL\UNIVERSAL BOOTLOADER\Bootloader Source\UNIFIED\PIC18F4550_UNIFIED\UNI_BL_4550\usbdsc.c
                compare_l   0x001280    program     static C:\MCC18\src\traditional\proc\p18F4550.asm
                copy_loop   0x00123e    program     static                          
            copy_one_byte   0x001244    program     static                          
               device_dsc   0x00111c    program     extern C:\DBC-1200 LITE\FINAL\UNIVERSAL BOOTLOADER\Bootloader Source\UNIFIED\PIC18F4550_UNIFIED\UNI_BL_4550\usbdsc.c
                     done   0x001268    program     static                          
             done_copying   0x001252    program     static                          
                hid_rpt01   0x0011a3    program     extern C:\DBC-1200 LITE\FINAL\UNIVERSAL BOOTLOADER\Bootloader Source\UNIFIED\PIC18F4550_UNIFIED\UNI_BL_4550\usbdsc.c
 interrupt_at_high_vector   0x000008    program     extern C:\DBC-1200 LITE\FINAL\UNIVERSAL BOOTLOADER\Bootloader Source\UNIFIED\PIC18F4550_UNIFIED\UNI_BL_4550\main.c
  interrupt_at_low_vector   0x000018    program     extern C:\DBC-1200 LITE\FINAL\UNIVERSAL BOOTLOADER\Bootloader Source\UNIFIED\PIC18F4550_UNIFIED\UNI_BL_4550\main.c
                     loop   0x00129a    program     static                          
                   loop_h   0x001278    program     static C:\MCC18\src\traditional\proc\p18F4550.asm
                   loop_l   0x001282    program     static C:\MCC18\src\traditional\proc\p18F4550.asm
                     main   0x000c4e    program     extern C:\DBC-1200 LITE\FINAL\UNIVERSAL BOOTLOADER\Bootloader Source\UNIFIED\PIC18F4550_UNIFIED\UNI_BL_4550\main.c
                    sd000   0x001157    program     extern C:\DBC-1200 LITE\FINAL\UNIVERSAL BOOTLOADER\Bootloader Source\UNIFIED\PIC18F4550_UNIFIED\UNI_BL_4550\usbdsc.c
                    sd001   0x00115b    program     extern C:\DBC-1200 LITE\FINAL\UNIVERSAL BOOTLOADER\Bootloader Source\UNIFIED\PIC18F4550_UNIFIED\UNI_BL_4550\usbdsc.c
                    sd002   0x001179    program     extern C:\DBC-1200 LITE\FINAL\UNIVERSAL BOOTLOADER\Bootloader Source\UNIFIED\PIC18F4550_UNIFIED\UNI_BL_4550\usbdsc.c
                     test   0x0011e6    program     static                          
               zero_block   0x001278    program     static C:\MCC18\src\traditional\proc\p18F4550.asm
                   ADCON0   0x000fc2       data     extern C:\MCC18\src\traditional\proc\p18F4550.asm
               ADCON0bits   0x000fc2       data     extern C:\MCC18\src\traditional\proc\p18F4550.asm
                   ADCON1   0x000fc1       data     extern C:\MCC18\src\traditional\proc\p18F4550.asm
               ADCON1bits   0x000fc1       data     extern C:\MCC18\src\traditional\proc\p18F4550.asm
                   ADCON2   0x000fc0       data     extern C:\MCC18\src\traditional\proc\p18F4550.asm
               ADCON2bits   0x000fc0       data     extern C:\MCC18\src\traditional\proc\p18F4550.asm
                    ADRES   0x000fc3       data     extern C:\MCC18\src\traditional\proc\p18F4550.asm
                   ADRESH   0x000fc4       data     extern C:\MCC18\src\traditional\proc\p18F4550.asm
                   ADRESL   0x000fc3       data     extern C:\MCC18\src\traditional\proc\p18F4550.asm
                  BAUDCON   0x000fb8       data     extern C:\MCC18\src\traditional\proc\p18F4550.asm
              BAUDCONbits   0x000fb8       data     extern C:\MCC18\src\traditional\proc\p18F4550.asm
                      BSR   0x000fe0       data     extern C:\MCC18\src\traditional\proc\p18F4550.asm
                BootState   0x000063       data     extern C:\DBC-1200 LITE\FINAL\UNIVERSAL BOOTLOADER\Bootloader Source\UNIFIED\PIC18F4550_UNIFIED\UNI_BL_4550\BootPIC18NonJ.c
        BufferedDataIndex   0x000066       data     extern C:\DBC-1200 LITE\FINAL\UNIVERSAL BOOTLOADER\Bootloader Source\UNIFIED\PIC18F4550_UNIFIED\UNI_BL_4550\BootPIC18NonJ.c
                   CCP1AS   0x000fb6       data     extern C:\MCC18\src\traditional\proc\p18F4550.asm
               CCP1ASbits   0x000fb6       data     extern C:\MCC18\src\traditional\proc\p18F4550.asm
                  CCP1CON   0x000fbd       data     extern C:\MCC18\src\traditional\proc\p18F4550.asm
              CCP1CONbits   0x000fbd       data     extern C:\MCC18\src\traditional\proc\p18F4550.asm
                  CCP1DEL   0x000fb7       data     extern C:\MCC18\src\traditional\proc\p18F4550.asm
              CCP1DELbits   0x000fb7       data     extern C:\MCC18\src\traditional\proc\p18F4550.asm
                  CCP2CON   0x000fba       data     extern C:\MCC18\src\traditional\proc\p18F4550.asm
              CCP2CONbits   0x000fba       data     extern C:\MCC18\src\traditional\proc\p18F4550.asm
                    CCPR1   0x000fbe       data     extern C:\MCC18\src\traditional\proc\p18F4550.asm
                   CCPR1H   0x000fbf       data     extern C:\MCC18\src\traditional\proc\p18F4550.asm
                   CCPR1L   0x000fbe       data     extern C:\MCC18\src\traditional\proc\p18F4550.asm
                    CCPR2   0x000fbb       data     extern C:\MCC18\src\traditional\proc\p18F4550.asm
                   CCPR2H   0x000fbc       data     extern C:\MCC18\src\traditional\proc\p18F4550.asm
                   CCPR2L   0x000fbb       data     extern C:\MCC18\src\traditional\proc\p18F4550.asm
                    CMCON   0x000fb4       data     extern C:\MCC18\src\traditional\proc\p18F4550.asm
                CMCONbits   0x000fb4       data     extern C:\MCC18\src\traditional\proc\p18F4550.asm
                   CVRCON   0x000fb5       data     extern C:\MCC18\src\traditional\proc\p18F4550.asm
               CVRCONbits   0x000fb5       data     extern C:\MCC18\src\traditional\proc\p18F4550.asm
         ConfigsLockValue   0x00006a       data     extern C:\DBC-1200 LITE\FINAL\UNIVERSAL BOOTLOADER\Bootloader Source\UNIFIED\PIC18F4550_UNIFIED\UNI_BL_4550\BootPIC18NonJ.c
              CtrlTrfData   0x000418       data     extern C:\DBC-1200 LITE\FINAL\UNIVERSAL BOOTLOADER\Bootloader Source\UNIFIED\PIC18F4550_UNIFIED\UNI_BL_4550\usbmmap.c
                     DDRA   0x000f92       data     extern C:\MCC18\src\traditional\proc\p18F4550.asm
                 DDRAbits   0x000f92       data     extern C:\MCC18\src\traditional\proc\p18F4550.asm
                     DDRB   0x000f93       data     extern C:\MCC18\src\traditional\proc\p18F4550.asm
                 DDRBbits   0x000f93       data     extern C:\MCC18\src\traditional\proc\p18F4550.asm
                     DDRC   0x000f94       data     extern C:\MCC18\src\traditional\proc\p18F4550.asm
                 DDRCbits   0x000f94       data     extern C:\MCC18\src\traditional\proc\p18F4550.asm
                     DDRD   0x000f95       data     extern C:\MCC18\src\traditional\proc\p18F4550.asm
                 DDRDbits   0x000f95       data     extern C:\MCC18\src\traditional\proc\p18F4550.asm
                     DDRE   0x000f96       data     extern C:\MCC18\src\traditional\proc\p18F4550.asm
                 DDREbits   0x000f96       data     extern C:\MCC18\src\traditional\proc\p18F4550.asm
                  ECCP1AS   0x000fb6       data     extern C:\MCC18\src\traditional\proc\p18F4550.asm
              ECCP1ASbits   0x000fb6       data     extern C:\MCC18\src\traditional\proc\p18F4550.asm
                 ECCP1CON   0x000fbd       data     extern C:\MCC18\src\traditional\proc\p18F4550.asm
             ECCP1CONbits   0x000fbd       data     extern C:\MCC18\src\traditional\proc\p18F4550.asm
                 ECCP1DEL   0x000fb7       data     extern C:\MCC18\src\traditional\proc\p18F4550.asm
             ECCP1DELbits   0x000fb7       data     extern C:\MCC18\src\traditional\proc\p18F4550.asm
                    EEADR   0x000fa9       data     extern C:\MCC18\src\traditional\proc\p18F4550.asm
                   EECON1   0x000fa6       data     extern C:\MCC18\src\traditional\proc\p18F4550.asm
               EECON1bits   0x000fa6       data     extern C:\MCC18\src\traditional\proc\p18F4550.asm
                   EECON2   0x000fa7       data     extern C:\MCC18\src\traditional\proc\p18F4550.asm
                   EEDATA   0x000fa8       data     extern C:\MCC18\src\traditional\proc\p18F4550.asm
         ErasePageTracker   0x000064       data     extern C:\DBC-1200 LITE\FINAL\UNIVERSAL BOOTLOADER\Bootloader Source\UNIFIED\PIC18F4550_UNIFIED\UNI_BL_4550\BootPIC18NonJ.c
                     FSR0   0x000fe9       data     extern C:\MCC18\src\traditional\proc\p18F4550.asm
                    FSR0H   0x000fea       data     extern C:\MCC18\src\traditional\proc\p18F4550.asm
                    FSR0L   0x000fe9       data     extern C:\MCC18\src\traditional\proc\p18F4550.asm
                     FSR1   0x000fe1       data     extern C:\MCC18\src\traditional\proc\p18F4550.asm
                    FSR1H   0x000fe2       data     extern C:\MCC18\src\traditional\proc\p18F4550.asm
                    FSR1L   0x000fe1       data     extern C:\MCC18\src\traditional\proc\p18F4550.asm
                     FSR2   0x000fd9       data     extern C:\MCC18\src\traditional\proc\p18F4550.asm
                    FSR2H   0x000fda       data     extern C:\MCC18\src\traditional\proc\p18F4550.asm
                    FSR2L   0x000fd9       data     extern C:\MCC18\src\traditional\proc\p18F4550.asm
                  HLVDCON   0x000fd2       data     extern C:\MCC18\src\traditional\proc\p18F4550.asm
              HLVDCONbits   0x000fd2       data     extern C:\MCC18\src\traditional\proc\p18F4550.asm
                    INDF0   0x000fef       data     extern C:\MCC18\src\traditional\proc\p18F4550.asm
                    INDF1   0x000fe7       data     extern C:\MCC18\src\traditional\proc\p18F4550.asm
                    INDF2   0x000fdf       data     extern C:\MCC18\src\traditional\proc\p18F4550.asm
                   INTCON   0x000ff2       data     extern C:\MCC18\src\traditional\proc\p18F4550.asm
                  INTCON2   0x000ff1       data     extern C:\MCC18\src\traditional\proc\p18F4550.asm
              INTCON2bits   0x000ff1       data     extern C:\MCC18\src\traditional\proc\p18F4550.asm
                  INTCON3   0x000ff0       data     extern C:\MCC18\src\traditional\proc\p18F4550.asm
              INTCON3bits   0x000ff0       data     extern C:\MCC18\src\traditional\proc\p18F4550.asm
               INTCONbits   0x000ff2       data     extern C:\MCC18\src\traditional\proc\p18F4550.asm
                     IPR1   0x000f9f       data     extern C:\MCC18\src\traditional\proc\p18F4550.asm
                 IPR1bits   0x000f9f       data     extern C:\MCC18\src\traditional\proc\p18F4550.asm
                     IPR2   0x000fa2       data     extern C:\MCC18\src\traditional\proc\p18F4550.asm
                 IPR2bits   0x000fa2       data     extern C:\MCC18\src\traditional\proc\p18F4550.asm
                     LATA   0x000f89       data     extern C:\MCC18\src\traditional\proc\p18F4550.asm
                 LATAbits   0x000f89       data     extern C:\MCC18\src\traditional\proc\p18F4550.asm
                     LATB   0x000f8a       data     extern C:\MCC18\src\traditional\proc\p18F4550.asm
                 LATBbits   0x000f8a       data     extern C:\MCC18\src\traditional\proc\p18F4550.asm
                     LATC   0x000f8b       data     extern C:\MCC18\src\traditional\proc\p18F4550.asm
                 LATCbits   0x000f8b       data     extern C:\MCC18\src\traditional\proc\p18F4550.asm
                     LATD   0x000f8c       data     extern C:\MCC18\src\traditional\proc\p18F4550.asm
                 LATDbits   0x000f8c       data     extern C:\MCC18\src\traditional\proc\p18F4550.asm
                     LATE   0x000f8d       data     extern C:\MCC18\src\traditional\proc\p18F4550.asm
                 LATEbits   0x000f8d       data     extern C:\MCC18\src\traditional\proc\p18F4550.asm
                   LVDCON   0x000fd2       data     extern C:\MCC18\src\traditional\proc\p18F4550.asm
               LVDCONbits   0x000fd2       data     extern C:\MCC18\src\traditional\proc\p18F4550.asm
                   OSCCON   0x000fd3       data     extern C:\MCC18\src\traditional\proc\p18F4550.asm
               OSCCONbits   0x000fd3       data     extern C:\MCC18\src\traditional\proc\p18F4550.asm
                  OSCTUNE   0x000f9b       data     extern C:\MCC18\src\traditional\proc\p18F4550.asm
              OSCTUNEbits   0x000f9b       data     extern C:\MCC18\src\traditional\proc\p18F4550.asm
                       PC   0x000ff9       data     extern C:\MCC18\src\traditional\proc\p18F4550.asm
                      PCL   0x000ff9       data     extern C:\MCC18\src\traditional\proc\p18F4550.asm
                   PCLATH   0x000ffa       data     extern C:\MCC18\src\traditional\proc\p18F4550.asm
                   PCLATU   0x000ffb       data     extern C:\MCC18\src\traditional\proc\p18F4550.asm
                     PIE1   0x000f9d       data     extern C:\MCC18\src\traditional\proc\p18F4550.asm
                 PIE1bits   0x000f9d       data     extern C:\MCC18\src\traditional\proc\p18F4550.asm
                     PIE2   0x000fa0       data     extern C:\MCC18\src\traditional\proc\p18F4550.asm
                 PIE2bits   0x000fa0       data     extern C:\MCC18\src\traditional\proc\p18F4550.asm
                     PIR1   0x000f9e       data     extern C:\MCC18\src\traditional\proc\p18F4550.asm
                 PIR1bits   0x000f9e       data     extern C:\MCC18\src\traditional\proc\p18F4550.asm
                     PIR2   0x000fa1       data     extern C:\MCC18\src\traditional\proc\p18F4550.asm
                 PIR2bits   0x000fa1       data     extern C:\MCC18\src\traditional\proc\p18F4550.asm
                   PLUSW0   0x000feb       data     extern C:\MCC18\src\traditional\proc\p18F4550.asm
                   PLUSW1   0x000fe3       data     extern C:\MCC18\src\traditional\proc\p18F4550.asm
                   PLUSW2   0x000fdb       data     extern C:\MCC18\src\traditional\proc\p18F4550.asm
                    PORTA   0x000f80       data     extern C:\MCC18\src\traditional\proc\p18F4550.asm
                PORTAbits   0x000f80       data     extern C:\MCC18\src\traditional\proc\p18F4550.asm
                    PORTB   0x000f81       data     extern C:\MCC18\src\traditional\proc\p18F4550.asm
                PORTBbits   0x000f81       data     extern C:\MCC18\src\traditional\proc\p18F4550.asm
                    PORTC   0x000f82       data     extern C:\MCC18\src\traditional\proc\p18F4550.asm
                PORTCbits   0x000f82       data     extern C:\MCC18\src\traditional\proc\p18F4550.asm
                    PORTD   0x000f83       data     extern C:\MCC18\src\traditional\proc\p18F4550.asm
                PORTDbits   0x000f83       data     extern C:\MCC18\src\traditional\proc\p18F4550.asm
                    PORTE   0x000f84       data     extern C:\MCC18\src\traditional\proc\p18F4550.asm
                PORTEbits   0x000f84       data     extern C:\MCC18\src\traditional\proc\p18F4550.asm
                 POSTDEC0   0x000fed       data     extern C:\MCC18\src\traditional\proc\p18F4550.asm
                 POSTDEC1   0x000fe5       data     extern C:\MCC18\src\traditional\proc\p18F4550.asm
                 POSTDEC2   0x000fdd       data     extern C:\MCC18\src\traditional\proc\p18F4550.asm
                 POSTINC0   0x000fee       data     extern C:\MCC18\src\traditional\proc\p18F4550.asm
                 POSTINC1   0x000fe6       data     extern C:\MCC18\src\traditional\proc\p18F4550.asm
                 POSTINC2   0x000fde       data     extern C:\MCC18\src\traditional\proc\p18F4550.asm
                      PR2   0x000fcb       data     extern C:\MCC18\src\traditional\proc\p18F4550.asm
                  PREINC0   0x000fec       data     extern C:\MCC18\src\traditional\proc\p18F4550.asm
                  PREINC1   0x000fe4       data     extern C:\MCC18\src\traditional\proc\p18F4550.asm
                  PREINC2   0x000fdc       data     extern C:\MCC18\src\traditional\proc\p18F4550.asm
                     PROD   0x000ff3       data     extern C:\MCC18\src\traditional\proc\p18F4550.asm
                    PRODH   0x000ff4       data     extern C:\MCC18\src\traditional\proc\p18F4550.asm
                    PRODL   0x000ff3       data     extern C:\MCC18\src\traditional\proc\p18F4550.asm
             PacketFromPC   0x000370       data     extern C:\DBC-1200 LITE\FINAL\UNIVERSAL BOOTLOADER\Bootloader Source\UNIFIED\PIC18F4550_UNIFIED\UNI_BL_4550\BootPIC18NonJ.c
               PacketToPC   0x0003b0       data     extern C:\DBC-1200 LITE\FINAL\UNIVERSAL BOOTLOADER\Bootloader Source\UNIFIED\PIC18F4550_UNIFIED\UNI_BL_4550\BootPIC18NonJ.c
    ProgramMemStopAddress   0x000060       data     extern C:\DBC-1200 LITE\FINAL\UNIVERSAL BOOTLOADER\Bootloader Source\UNIFIED\PIC18F4550_UNIFIED\UNI_BL_4550\BootPIC18NonJ.c
        ProgrammedPointer   0x000067       data     extern C:\DBC-1200 LITE\FINAL\UNIVERSAL BOOTLOADER\Bootloader Source\UNIFIED\PIC18F4550_UNIFIED\UNI_BL_4550\BootPIC18NonJ.c
        ProgrammingBuffer   0x00006b       data     extern C:\DBC-1200 LITE\FINAL\UNIVERSAL BOOTLOADER\Bootloader Source\UNIFIED\PIC18F4550_UNIFIED\UNI_BL_4550\BootPIC18NonJ.c
                     RCON   0x000fd0       data     extern C:\MCC18\src\traditional\proc\p18F4550.asm
                 RCONbits   0x000fd0       data     extern C:\MCC18\src\traditional\proc\p18F4550.asm
                    RCREG   0x000fae       data     extern C:\MCC18\src\traditional\proc\p18F4550.asm
                    RCSTA   0x000fab       data     extern C:\MCC18\src\traditional\proc\p18F4550.asm
                RCSTAbits   0x000fab       data     extern C:\MCC18\src\traditional\proc\p18F4550.asm
                     SIGN   0x000003       data     extern C:\MCC18\src\traditional\math\cmath18.asm
                    SPBRG   0x000faf       data     extern C:\MCC18\src\traditional\proc\p18F4550.asm
                   SPBRGH   0x000fb0       data     extern C:\MCC18\src\traditional\proc\p18F4550.asm
                   SPPCFG   0x000f63       data     extern C:\MCC18\src\traditional\proc\p18F4550.asm
               SPPCFGbits   0x000f63       data     extern C:\MCC18\src\traditional\proc\p18F4550.asm
                   SPPCON   0x000f65       data     extern C:\MCC18\src\traditional\proc\p18F4550.asm
               SPPCONbits   0x000f65       data     extern C:\MCC18\src\traditional\proc\p18F4550.asm
                  SPPDATA   0x000f62       data     extern C:\MCC18\src\traditional\proc\p18F4550.asm
                   SPPEPS   0x000f64       data     extern C:\MCC18\src\traditional\proc\p18F4550.asm
               SPPEPSbits   0x000f64       data     extern C:\MCC18\src\traditional\proc\p18F4550.asm
                   SSPADD   0x000fc8       data     extern C:\MCC18\src\traditional\proc\p18F4550.asm
                   SSPBUF   0x000fc9       data     extern C:\MCC18\src\traditional\proc\p18F4550.asm
                  SSPCON1   0x000fc6       data     extern C:\MCC18\src\traditional\proc\p18F4550.asm
              SSPCON1bits   0x000fc6       data     extern C:\MCC18\src\traditional\proc\p18F4550.asm
                  SSPCON2   0x000fc5       data     extern C:\MCC18\src\traditional\proc\p18F4550.asm
              SSPCON2bits   0x000fc5       data     extern C:\MCC18\src\traditional\proc\p18F4550.asm
                  SSPSTAT   0x000fc7       data     extern C:\MCC18\src\traditional\proc\p18F4550.asm
              SSPSTATbits   0x000fc7       data     extern C:\MCC18\src\traditional\proc\p18F4550.asm
                   STATUS   0x000fd8       data     extern C:\MCC18\src\traditional\proc\p18F4550.asm
               STATUSbits   0x000fd8       data     extern C:\MCC18\src\traditional\proc\p18F4550.asm
                   STKPTR   0x000ffc       data     extern C:\MCC18\src\traditional\proc\p18F4550.asm
               STKPTRbits   0x000ffc       data     extern C:\MCC18\src\traditional\proc\p18F4550.asm
                   Setbit   0x0000b8       data     extern C:\DBC-1200 LITE\FINAL\UNIVERSAL BOOTLOADER\Bootloader Source\UNIFIED\PIC18F4550_UNIFIED\UNI_BL_4550\BootPIC18NonJ.c
                 SetupPkt   0x000410       data     extern C:\DBC-1200 LITE\FINAL\UNIVERSAL BOOTLOADER\Bootloader Source\UNIFIED\PIC18F4550_UNIFIED\UNI_BL_4550\usbmmap.c
                    T0CON   0x000fd5       data     extern C:\MCC18\src\traditional\proc\p18F4550.asm
                T0CONbits   0x000fd5       data     extern C:\MCC18\src\traditional\proc\p18F4550.asm
                    T1CON   0x000fcd       data     extern C:\MCC18\src\traditional\proc\p18F4550.asm
                T1CONbits   0x000fcd       data     extern C:\MCC18\src\traditional\proc\p18F4550.asm
                    T2CON   0x000fca       data     extern C:\MCC18\src\traditional\proc\p18F4550.asm
                T2CONbits   0x000fca       data     extern C:\MCC18\src\traditional\proc\p18F4550.asm
                    T3CON   0x000fb1       data     extern C:\MCC18\src\traditional\proc\p18F4550.asm
                T3CONbits   0x000fb1       data     extern C:\MCC18\src\traditional\proc\p18F4550.asm
                   TABLAT   0x000ff5       data     extern C:\MCC18\src\traditional\proc\p18F4550.asm
                   TBLPTR   0x000ff6       data     extern C:\MCC18\src\traditional\proc\p18F4550.asm
                  TBLPTRH   0x000ff7       data     extern C:\MCC18\src\traditional\proc\p18F4550.asm
                  TBLPTRL   0x000ff6       data     extern C:\MCC18\src\traditional\proc\p18F4550.asm
                  TBLPTRU   0x000ff8       data     extern C:\MCC18\src\traditional\proc\p18F4550.asm
                    TMR0H   0x000fd7       data     extern C:\MCC18\src\traditional\proc\p18F4550.asm
                    TMR0L   0x000fd6       data     extern C:\MCC18\src\traditional\proc\p18F4550.asm
                    TMR1H   0x000fcf       data     extern C:\MCC18\src\traditional\proc\p18F4550.asm
                    TMR1L   0x000fce       data     extern C:\MCC18\src\traditional\proc\p18F4550.asm
                     TMR2   0x000fcc       data     extern C:\MCC18\src\traditional\proc\p18F4550.asm
                    TMR3H   0x000fb3       data     extern C:\MCC18\src\traditional\proc\p18F4550.asm
                    TMR3L   0x000fb2       data     extern C:\MCC18\src\traditional\proc\p18F4550.asm
                      TOS   0x000ffd       data     extern C:\MCC18\src\traditional\proc\p18F4550.asm
                     TOSH   0x000ffe       data     extern C:\MCC18\src\traditional\proc\p18F4550.asm
                     TOSL   0x000ffd       data     extern C:\MCC18\src\traditional\proc\p18F4550.asm
                     TOSU   0x000fff       data     extern C:\MCC18\src\traditional\proc\p18F4550.asm
                    TRISA   0x000f92       data     extern C:\MCC18\src\traditional\proc\p18F4550.asm
                TRISAbits   0x000f92       data     extern C:\MCC18\src\traditional\proc\p18F4550.asm
                    TRISB   0x000f93       data     extern C:\MCC18\src\traditional\proc\p18F4550.asm
                TRISBbits   0x000f93       data     extern C:\MCC18\src\traditional\proc\p18F4550.asm
                    TRISC   0x000f94       data     extern C:\MCC18\src\traditional\proc\p18F4550.asm
                TRISCbits   0x000f94       data     extern C:\MCC18\src\traditional\proc\p18F4550.asm
                    TRISD   0x000f95       data     extern C:\MCC18\src\traditional\proc\p18F4550.asm
                TRISDbits   0x000f95       data     extern C:\MCC18\src\traditional\proc\p18F4550.asm
                    TRISE   0x000f96       data     extern C:\MCC18\src\traditional\proc\p18F4550.asm
                TRISEbits   0x000f96       data     extern C:\MCC18\src\traditional\proc\p18F4550.asm
                    TXREG   0x000fad       data     extern C:\MCC18\src\traditional\proc\p18F4550.asm
                    TXSTA   0x000fac       data     extern C:\MCC18\src\traditional\proc\p18F4550.asm
                TXSTAbits   0x000fac       data     extern C:\MCC18\src\traditional\proc\p18F4550.asm
                    UADDR   0x000f6e       data     extern C:\MCC18\src\traditional\proc\p18F4550.asm
                UADDRbits   0x000f6e       data     extern C:\MCC18\src\traditional\proc\p18F4550.asm
                     UCFG   0x000f6f       data     extern C:\MCC18\src\traditional\proc\p18F4550.asm
                 UCFGbits   0x000f6f       data     extern C:\MCC18\src\traditional\proc\p18F4550.asm
                     UCON   0x000f6d       data     extern C:\MCC18\src\traditional\proc\p18F4550.asm
                 UCONbits   0x000f6d       data     extern C:\MCC18\src\traditional\proc\p18F4550.asm
                     UEIE   0x000f6b       data     extern C:\MCC18\src\traditional\proc\p18F4550.asm
                 UEIEbits   0x000f6b       data     extern C:\MCC18\src\traditional\proc\p18F4550.asm
                     UEIR   0x000f6a       data     extern C:\MCC18\src\traditional\proc\p18F4550.asm
                 UEIRbits   0x000f6a       data     extern C:\MCC18\src\traditional\proc\p18F4550.asm
                     UEP0   0x000f70       data     extern C:\MCC18\src\traditional\proc\p18F4550.asm
                 UEP0bits   0x000f70       data     extern C:\MCC18\src\traditional\proc\p18F4550.asm
                     UEP1   0x000f71       data     extern C:\MCC18\src\traditional\proc\p18F4550.asm
                    UEP10   0x000f7a       data     extern C:\MCC18\src\traditional\proc\p18F4550.asm
                UEP10bits   0x000f7a       data     extern C:\MCC18\src\traditional\proc\p18F4550.asm
                    UEP11   0x000f7b       data     extern C:\MCC18\src\traditional\proc\p18F4550.asm
                UEP11bits   0x000f7b       data     extern C:\MCC18\src\traditional\proc\p18F4550.asm
                    UEP12   0x000f7c       data     extern C:\MCC18\src\traditional\proc\p18F4550.asm
                UEP12bits   0x000f7c       data     extern C:\MCC18\src\traditional\proc\p18F4550.asm
                    UEP13   0x000f7d       data     extern C:\MCC18\src\traditional\proc\p18F4550.asm
                UEP13bits   0x000f7d       data     extern C:\MCC18\src\traditional\proc\p18F4550.asm
                    UEP14   0x000f7e       data     extern C:\MCC18\src\traditional\proc\p18F4550.asm
                UEP14bits   0x000f7e       data     extern C:\MCC18\src\traditional\proc\p18F4550.asm
                    UEP15   0x000f7f       data     extern C:\MCC18\src\traditional\proc\p18F4550.asm
                UEP15bits   0x000f7f       data     extern C:\MCC18\src\traditional\proc\p18F4550.asm
                 UEP1bits   0x000f71       data     extern C:\MCC18\src\traditional\proc\p18F4550.asm
                     UEP2   0x000f72       data     extern C:\MCC18\src\traditional\proc\p18F4550.asm
                 UEP2bits   0x000f72       data     extern C:\MCC18\src\traditional\proc\p18F4550.asm
                     UEP3   0x000f73       data     extern C:\MCC18\src\traditional\proc\p18F4550.asm
                 UEP3bits   0x000f73       data     extern C:\MCC18\src\traditional\proc\p18F4550.asm
                     UEP4   0x000f74       data     extern C:\MCC18\src\traditional\proc\p18F4550.asm
                 UEP4bits   0x000f74       data     extern C:\MCC18\src\traditional\proc\p18F4550.asm
                     UEP5   0x000f75       data     extern C:\MCC18\src\traditional\proc\p18F4550.asm
                 UEP5bits   0x000f75       data     extern C:\MCC18\src\traditional\proc\p18F4550.asm
                     UEP6   0x000f76       data     extern C:\MCC18\src\traditional\proc\p18F4550.asm
                 UEP6bits   0x000f76       data     extern C:\MCC18\src\traditional\proc\p18F4550.asm
                     UEP7   0x000f77       data     extern C:\MCC18\src\traditional\proc\p18F4550.asm
                 UEP7bits   0x000f77       data     extern C:\MCC18\src\traditional\proc\p18F4550.asm
                     UEP8   0x000f78       data     extern C:\MCC18\src\traditional\proc\p18F4550.asm
                 UEP8bits   0x000f78       data     extern C:\MCC18\src\traditional\proc\p18F4550.asm
                     UEP9   0x000f79       data     extern C:\MCC18\src\traditional\proc\p18F4550.asm
                 UEP9bits   0x000f79       data     extern C:\MCC18\src\traditional\proc\p18F4550.asm
                     UFRM   0x000f66       data     extern C:\MCC18\src\traditional\proc\p18F4550.asm
                    UFRMH   0x000f67       data     extern C:\MCC18\src\traditional\proc\p18F4550.asm
                UFRMHbits   0x000f67       data     extern C:\MCC18\src\traditional\proc\p18F4550.asm
                    UFRML   0x000f66       data     extern C:\MCC18\src\traditional\proc\p18F4550.asm
                UFRMLbits   0x000f66       data     extern C:\MCC18\src\traditional\proc\p18F4550.asm
                      UIE   0x000f69       data     extern C:\MCC18\src\traditional\proc\p18F4550.asm
                  UIEbits   0x000f69       data     extern C:\MCC18\src\traditional\proc\p18F4550.asm
                      UIR   0x000f68       data     extern C:\MCC18\src\traditional\proc\p18F4550.asm
                  UIRbits   0x000f68       data     extern C:\MCC18\src\traditional\proc\p18F4550.asm
                    USTAT   0x000f6c       data     extern C:\MCC18\src\traditional\proc\p18F4550.asm
                USTATbits   0x000f6c       data     extern C:\MCC18\src\traditional\proc\p18F4550.asm
            ValidFirmware   0x0000ba       data     extern C:\DBC-1200 LITE\FINAL\UNIVERSAL BOOTLOADER\Bootloader Source\UNIFIED\PIC18F4550_UNIFIED\UNI_BL_4550\BootPIC18NonJ.c
                   WDTCON   0x000fd1       data     extern C:\MCC18\src\traditional\proc\p18F4550.asm
               WDTCONbits   0x000fd1       data     extern C:\MCC18\src\traditional\proc\p18F4550.asm
                     WREG   0x000fe8       data     extern C:\MCC18\src\traditional\proc\p18F4550.asm
                __FPFLAGS   0x000004       data     extern C:\MCC18\src\traditional\math\cmath18.asm
            __FPFLAGSbits   0x000004       data     extern C:\MCC18\src\traditional\math\cmath18.asm
                  __tmp_0   0x000000       data     static C:\DBC-1200 LITE\FINAL\UNIVERSAL BOOTLOADER\Bootloader Source\UNIFIED\PIC18F4550_UNIFIED\UNI_BL_4550\hid.c
                  __tmp_0   0x000000       data     static C:\DBC-1200 LITE\FINAL\UNIVERSAL BOOTLOADER\Bootloader Source\UNIFIED\PIC18F4550_UNIFIED\UNI_BL_4550\usb9.c
                  __tmp_0   0x000000       data     static C:\DBC-1200 LITE\FINAL\UNIVERSAL BOOTLOADER\Bootloader Source\UNIFIED\PIC18F4550_UNIFIED\UNI_BL_4550\BootPIC18NonJ.c
                  __tmp_0   0x000000       data     static C:\DBC-1200 LITE\FINAL\UNIVERSAL BOOTLOADER\Bootloader Source\UNIFIED\PIC18F4550_UNIFIED\UNI_BL_4550\usbctrltrf.c
          active_protocol   0x0000bd       data     extern C:\DBC-1200 LITE\FINAL\UNIVERSAL BOOTLOADER\Bootloader Source\UNIFIED\PIC18F4550_UNIFIED\UNI_BL_4550\hid.c
              bTRNIFCount   0x0003fe       data     extern C:\DBC-1200 LITE\FINAL\UNIVERSAL BOOTLOADER\Bootloader Source\UNIFIED\PIC18F4550_UNIFIED\UNI_BL_4550\usbdrv.c
                  counter   0x0000b4       data     extern C:\DBC-1200 LITE\FINAL\UNIVERSAL BOOTLOADER\Bootloader Source\UNIFIED\PIC18F4550_UNIFIED\UNI_BL_4550\main.c
   ctrl_trf_session_owner   0x0000ac       data     extern C:\DBC-1200 LITE\FINAL\UNIVERSAL BOOTLOADER\Bootloader Source\UNIFIED\PIC18F4550_UNIFIED\UNI_BL_4550\usbctrltrf.c
           ctrl_trf_state   0x0000ab       data     extern C:\DBC-1200 LITE\FINAL\UNIVERSAL BOOTLOADER\Bootloader Source\UNIFIED\PIC18F4550_UNIFIED\UNI_BL_4550\usbctrltrf.c
                curr_byte   0x0003f3       data     static C:\MCC18\src\traditional\startup\c018i.c
               curr_entry   0x0003f5       data     static C:\MCC18\src\traditional\startup\c018i.c
                 data_ptr   0x0003f7       data     static C:\MCC18\src\traditional\startup\c018i.c
                    ep0Bi   0x000404       data     extern C:\DBC-1200 LITE\FINAL\UNIVERSAL BOOTLOADER\Bootloader Source\UNIFIED\PIC18F4550_UNIFIED\UNI_BL_4550\usbmmap.c
                    ep0Bo   0x000400       data     extern C:\DBC-1200 LITE\FINAL\UNIVERSAL BOOTLOADER\Bootloader Source\UNIFIED\PIC18F4550_UNIFIED\UNI_BL_4550\usbmmap.c
                    ep1Bi   0x00040c       data     extern C:\DBC-1200 LITE\FINAL\UNIVERSAL BOOTLOADER\Bootloader Source\UNIFIED\PIC18F4550_UNIFIED\UNI_BL_4550\usbmmap.c
                    ep1Bo   0x000408       data     extern C:\DBC-1200 LITE\FINAL\UNIVERSAL BOOTLOADER\Bootloader Source\UNIFIED\PIC18F4550_UNIFIED\UNI_BL_4550\usbmmap.c
            hid_report_in   0x000460       data     extern C:\DBC-1200 LITE\FINAL\UNIVERSAL BOOTLOADER\Bootloader Source\UNIFIED\PIC18F4550_UNIFIED\UNI_BL_4550\usbmmap.c
           hid_report_out   0x000420       data     extern C:\DBC-1200 LITE\FINAL\UNIVERSAL BOOTLOADER\Bootloader Source\UNIFIED\PIC18F4550_UNIFIED\UNI_BL_4550\usbmmap.c
           hid_rpt_rx_len   0x0000be       data     extern C:\DBC-1200 LITE\FINAL\UNIVERSAL BOOTLOADER\Bootloader Source\UNIFIED\PIC18F4550_UNIFIED\UNI_BL_4550\hid.c
                idle_rate   0x0000bc       data     extern C:\DBC-1200 LITE\FINAL\UNIVERSAL BOOTLOADER\Bootloader Source\UNIFIED\PIC18F4550_UNIFIED\UNI_BL_4550\hid.c
                led_count   0x0000b6       data     static C:\DBC-1200 LITE\FINAL\UNIVERSAL BOOTLOADER\Bootloader Source\UNIFIED\PIC18F4550_UNIFIED\UNI_BL_4550\main.c
                     pDst   0x0000af       data     extern C:\DBC-1200 LITE\FINAL\UNIVERSAL BOOTLOADER\Bootloader Source\UNIFIED\PIC18F4550_UNIFIED\UNI_BL_4550\usbctrltrf.c
                     pSrc   0x0000ad       data     extern C:\DBC-1200 LITE\FINAL\UNIVERSAL BOOTLOADER\Bootloader Source\UNIFIED\PIC18F4550_UNIFIED\UNI_BL_4550\usbctrltrf.c
                     prom   0x0003f0       data     static C:\MCC18\src\traditional\startup\c018i.c
         short_pkt_status   0x0000b3       data     extern C:\DBC-1200 LITE\FINAL\UNIVERSAL BOOTLOADER\Bootloader Source\UNIFIED\PIC18F4550_UNIFIED\UNI_BL_4550\usbctrltrf.c
           usb_active_cfg   0x0003fc       data     extern C:\DBC-1200 LITE\FINAL\UNIVERSAL BOOTLOADER\Bootloader Source\UNIFIED\PIC18F4550_UNIFIED\UNI_BL_4550\usbmmap.c
             usb_alt_intf   0x0003fd       data     extern C:\DBC-1200 LITE\FINAL\UNIVERSAL BOOTLOADER\Bootloader Source\UNIFIED\PIC18F4550_UNIFIED\UNI_BL_4550\usbmmap.c
         usb_device_state   0x0003fa       data     extern C:\DBC-1200 LITE\FINAL\UNIVERSAL BOOTLOADER\Bootloader Source\UNIFIED\PIC18F4550_UNIFIED\UNI_BL_4550\usbmmap.c
                 usb_stat   0x0003fb       data     extern C:\DBC-1200 LITE\FINAL\UNIVERSAL BOOTLOADER\Bootloader Source\UNIFIED\PIC18F4550_UNIFIED\UNI_BL_4550\usbmmap.c
                   wCount   0x0000b1       data     extern C:\DBC-1200 LITE\FINAL\UNIVERSAL BOOTLOADER\Bootloader Source\UNIFIED\PIC18F4550_UNIFIED\UNI_BL_4550\usbctrltrf.c



                              Symbols - Sorted by Address
                     Name    Address   Location    Storage File                     
                ---------  ---------  ---------  --------- ---------                
                   _entry   0x000000    program     extern C:\MCC18\src\traditional\startup\c018i.c
       ___return_lbl00000   0x000004    program     static                          
 interrupt_at_high_vector   0x000008    program     extern C:\DBC-1200 LITE\FINAL\UNIVERSAL BOOTLOADER\Bootloader Source\UNIFIED\PIC18F4550_UNIFIED\UNI_BL_4550\main.c
       ___return_lbl00000   0x00000c    program     static                          
  interrupt_at_low_vector   0x000018    program     extern C:\DBC-1200 LITE\FINAL\UNIVERSAL BOOTLOADER\Bootloader Source\UNIFIED\PIC18F4550_UNIFIED\UNI_BL_4550\main.c
       ___return_lbl00001   0x00001c    program     static                          
                 UserInit   0x00003a    program     extern C:\DBC-1200 LITE\FINAL\UNIVERSAL BOOTLOADER\Bootloader Source\UNIFIED\PIC18F4550_UNIFIED\UNI_BL_4550\BootPIC18NonJ.c
               ReadEEPROM   0x000066    program     extern C:\DBC-1200 LITE\FINAL\UNIVERSAL BOOTLOADER\Bootloader Source\UNIFIED\PIC18F4550_UNIFIED\UNI_BL_4550\BootPIC18NonJ.c
            WriteToEEPROM   0x00008c    program     extern C:\DBC-1200 LITE\FINAL\UNIVERSAL BOOTLOADER\Bootloader Source\UNIFIED\PIC18F4550_UNIFIED\UNI_BL_4550\BootPIC18NonJ.c
        ___while_lbl00003   0x0000b6    program     static                          
        ___while_lbl00004   0x0000ba    program     static                          
       ___return_lbl00002   0x0000be    program     static                          
ClearEEPROMBootloaderFlag   0x0000c6    program     extern C:\DBC-1200 LITE\FINAL\UNIVERSAL BOOTLOADER\Bootloader Source\UNIFIED\PIC18F4550_UNIFIED\UNI_BL_4550\BootPIC18NonJ.c
          ___for_lbl00010   0x000124    program     static                          
        ___while_lbl00008   0x00012c    program     static                          
        ___while_lbl00009   0x000138    program     static                          
          ___for_lbl00006   0x000138    program     static                          
          ___for_lbl00007   0x00013c    program     static                          
       ___return_lbl00005   0x00013e    program     static                          
           ___if_lbl00011   0x00013e    program     static                          
                ProcessIO   0x000152    program     extern C:\DBC-1200 LITE\FINAL\UNIVERSAL BOOTLOADER\Bootloader Source\UNIFIED\PIC18F4550_UNIFIED\UNI_BL_4550\BootPIC18NonJ.c
          ___for_lbl00015   0x000188    program     static                          
          ___for_lbl00013   0x00019c    program     static                          
          ___for_lbl00014   0x0001a0    program     static                          
           ___if_lbl00016   0x0001a0    program     static                          
         ___else_lbl00055   0x0001a2    program     static                          
       ___case_2_lbl00019   0x0001cc    program     static                          
           ___if_lbl00018   0x00025c    program     static                          
       ___case_3_lbl00021   0x00025e    program     static                          
           ___if_lbl00020   0x00026e    program     static                          
       ___case_4_lbl00026   0x000274    program     static                          
          ___for_lbl00024   0x00027c    program     static                          
          ___for_lbl00022   0x0002bc    program     static                          
          ___for_lbl00023   0x0002c6    program     static                          
           ___if_lbl00025   0x0002ee    program     static                          
       ___case_5_lbl00035   0x000344    program     static                          
           ___if_lbl00027   0x000354    program     static                          
           ___if_lbl00028   0x00035a    program     static                          
               __tmplbl_0   0x00036c    program     static                          
           ___if_lbl00029   0x00037a    program     static                          
               __tmplbl_1   0x00039a    program     static                          
          ___for_lbl00033   0x00039e    program     static                          
          ___for_lbl00030   0x0003ec    program     static                          
           ___if_lbl00032   0x0003ec    program     static                          
          ___for_lbl00031   0x0003f0    program     static                          
           ___if_lbl00034   0x0003f0    program     static                          
       ___case_6_lbl00036   0x0003f6    program     static                          
       ___case_7_lbl00046   0x00041c    program     static                          
          ___for_lbl00044   0x000444    program     static                          
         ___else_lbl00043   0x000456    program     static                          
           ___if_lbl00039   0x000466    program     static                          
           ___if_lbl00040   0x00046e    program     static                          
           ___if_lbl00041   0x00046e    program     static                          
          ___for_lbl00037   0x000486    program     static                          
           ___if_lbl00042   0x000486    program     static                          
          ___for_lbl00038   0x00048a    program     static                          
           ___if_lbl00045   0x0004aa    program     static                          
       ___case_8_lbl00053   0x0004ac    program     static                          
          ___for_lbl00051   0x0004b2    program     static                          
        ___while_lbl00049   0x0004ba    program     static                          
          ___for_lbl00047   0x0004c6    program     static                          
        ___while_lbl00050   0x0004c6    program     static                          
          ___for_lbl00048   0x0004ca    program     static                          
           ___if_lbl00052   0x00050a    program     static                          
           ___if_lbl00054   0x00050e    program     static                          
   ___switchexit_lbl00017   0x00050e    program     static                          
       ___return_lbl00012   0x00050e    program     static                          
          WriteFlashBlock   0x000522    program     extern C:\DBC-1200 LITE\FINAL\UNIVERSAL BOOTLOADER\Bootloader Source\UNIFIED\PIC18F4550_UNIFIED\UNI_BL_4550\BootPIC18NonJ.c
          ___for_lbl00063   0x000564    program     static                          
         ___else_lbl00060   0x000594    program     static                          
           ___if_lbl00059   0x000598    program     static                          
         ___else_lbl00062   0x00059a    program     static                          
           ___if_lbl00061   0x0005a2    program     static                          
          ___for_lbl00057   0x0005a2    program     static                          
          ___for_lbl00058   0x0005a6    program     static                          
          ___for_lbl00066   0x0005b0    program     static                          
          ___for_lbl00064   0x0005de    program     static                          
          ___for_lbl00065   0x0005e2    program     static                          
       ___return_lbl00056   0x0005e2    program     static                          
          WriteConfigBits   0x0005f6    program     extern C:\DBC-1200 LITE\FINAL\UNIVERSAL BOOTLOADER\Bootloader Source\UNIFIED\PIC18F4550_UNIFIED\UNI_BL_4550\BootPIC18NonJ.c
          ___for_lbl00070   0x00060e    program     static                          
          ___for_lbl00068   0x000638    program     static                          
          ___for_lbl00069   0x00063c    program     static                          
       ___return_lbl00067   0x00063c    program     static                          
        UnlockAndActivate   0x000646    program     extern C:\DBC-1200 LITE\FINAL\UNIVERSAL BOOTLOADER\Bootloader Source\UNIFIED\PIC18F4550_UNIFIED\UNI_BL_4550\BootPIC18NonJ.c
        ___while_lbl00072   0x000652    program     static                          
        ___while_lbl00073   0x000656    program     static                          
       ___return_lbl00071   0x000658    program     static                          
         USBCtrlEPService   0x00065a    program     extern C:\DBC-1200 LITE\FINAL\UNIVERSAL BOOTLOADER\Bootloader Source\UNIFIED\PIC18F4550_UNIFIED\UNI_BL_4550\usbctrltrf.c
   USBCtrlTrfSetupHandler   0x000684    program     extern C:\DBC-1200 LITE\FINAL\UNIVERSAL BOOTLOADER\Bootloader Source\UNIFIED\PIC18F4550_UNIFIED\UNI_BL_4550\usbctrltrf.c
     USBCtrlTrfOutHandler   0x0006ea    program     extern C:\DBC-1200 LITE\FINAL\UNIVERSAL BOOTLOADER\Bootloader Source\UNIFIED\PIC18F4550_UNIFIED\UNI_BL_4550\usbctrltrf.c
      USBCtrlTrfInHandler   0x000708    program     extern C:\DBC-1200 LITE\FINAL\UNIVERSAL BOOTLOADER\Bootloader Source\UNIFIED\PIC18F4550_UNIFIED\UNI_BL_4550\usbctrltrf.c
      USBCtrlTrfTxService   0x00074c    program     extern C:\DBC-1200 LITE\FINAL\UNIVERSAL BOOTLOADER\Bootloader Source\UNIFIED\PIC18F4550_UNIFIED\UNI_BL_4550\usbctrltrf.c
      USBCtrlTrfRxService   0x0007e6    program     extern C:\DBC-1200 LITE\FINAL\UNIVERSAL BOOTLOADER\Bootloader Source\UNIFIED\PIC18F4550_UNIFIED\UNI_BL_4550\usbctrltrf.c
 USBCtrlEPServiceComplete   0x00083e    program     extern C:\DBC-1200 LITE\FINAL\UNIVERSAL BOOTLOADER\Bootloader Source\UNIFIED\PIC18F4550_UNIFIED\UNI_BL_4550\usbctrltrf.c
USBPrepareForNextSetupTrf   0x0008b0    program     extern C:\DBC-1200 LITE\FINAL\UNIVERSAL BOOTLOADER\Bootloader Source\UNIFIED\PIC18F4550_UNIFIED\UNI_BL_4550\usbctrltrf.c
                   __pa_0   0x000938    program     static C:\DBC-1200 LITE\FINAL\UNIVERSAL BOOTLOADER\Bootloader Source\UNIFIED\PIC18F4550_UNIFIED\UNI_BL_4550\usbctrltrf.c
                   __pa_1   0x000948    program     static C:\DBC-1200 LITE\FINAL\UNIVERSAL BOOTLOADER\Bootloader Source\UNIFIED\PIC18F4550_UNIFIED\UNI_BL_4550\usbctrltrf.c
                   __pa_2   0x000958    program     static C:\DBC-1200 LITE\FINAL\UNIVERSAL BOOTLOADER\Bootloader Source\UNIFIED\PIC18F4550_UNIFIED\UNI_BL_4550\usbctrltrf.c
                   __pa_3   0x000966    program     static C:\DBC-1200 LITE\FINAL\UNIVERSAL BOOTLOADER\Bootloader Source\UNIFIED\PIC18F4550_UNIFIED\UNI_BL_4550\usbctrltrf.c
                   __pa_4   0x000970    program     static C:\DBC-1200 LITE\FINAL\UNIVERSAL BOOTLOADER\Bootloader Source\UNIFIED\PIC18F4550_UNIFIED\UNI_BL_4550\usbctrltrf.c
                   __pa_5   0x000978    program     static C:\DBC-1200 LITE\FINAL\UNIVERSAL BOOTLOADER\Bootloader Source\UNIFIED\PIC18F4550_UNIFIED\UNI_BL_4550\usbctrltrf.c
       USBCheckStdRequest   0x000988    program     extern C:\DBC-1200 LITE\FINAL\UNIVERSAL BOOTLOADER\Bootloader Source\UNIFIED\PIC18F4550_UNIFIED\UNI_BL_4550\usb9.c
      USBStdGetDscHandler   0x000a26    program     extern C:\DBC-1200 LITE\FINAL\UNIVERSAL BOOTLOADER\Bootloader Source\UNIFIED\PIC18F4550_UNIFIED\UNI_BL_4550\usb9.c
      USBStdSetCfgHandler   0x000a94    program     extern C:\DBC-1200 LITE\FINAL\UNIVERSAL BOOTLOADER\Bootloader Source\UNIFIED\PIC18F4550_UNIFIED\UNI_BL_4550\usb9.c
   USBStdGetStatusHandler   0x000aca    program     extern C:\DBC-1200 LITE\FINAL\UNIVERSAL BOOTLOADER\Bootloader Source\UNIFIED\PIC18F4550_UNIFIED\UNI_BL_4550\usb9.c
  USBStdFeatureReqHandler   0x000b2e    program     extern C:\DBC-1200 LITE\FINAL\UNIVERSAL BOOTLOADER\Bootloader Source\UNIFIED\PIC18F4550_UNIFIED\UNI_BL_4550\usb9.c
                   __pa_0   0x000b9a    program     static C:\DBC-1200 LITE\FINAL\UNIVERSAL BOOTLOADER\Bootloader Source\UNIFIED\PIC18F4550_UNIFIED\UNI_BL_4550\usb9.c
                   __pa_1   0x000bb2    program     static C:\DBC-1200 LITE\FINAL\UNIVERSAL BOOTLOADER\Bootloader Source\UNIFIED\PIC18F4550_UNIFIED\UNI_BL_4550\usb9.c
                   __pa_2   0x000bc4    program     static C:\DBC-1200 LITE\FINAL\UNIVERSAL BOOTLOADER\Bootloader Source\UNIFIED\PIC18F4550_UNIFIED\UNI_BL_4550\usb9.c
                   __pa_3   0x000bd6    program     static C:\DBC-1200 LITE\FINAL\UNIVERSAL BOOTLOADER\Bootloader Source\UNIFIED\PIC18F4550_UNIFIED\UNI_BL_4550\usb9.c
                   __pa_4   0x000be6    program     static C:\DBC-1200 LITE\FINAL\UNIVERSAL BOOTLOADER\Bootloader Source\UNIFIED\PIC18F4550_UNIFIED\UNI_BL_4550\usb9.c
                   __pa_5   0x000bf4    program     static C:\DBC-1200 LITE\FINAL\UNIVERSAL BOOTLOADER\Bootloader Source\UNIFIED\PIC18F4550_UNIFIED\UNI_BL_4550\usb9.c
                   __pa_6   0x000bfc    program     static C:\DBC-1200 LITE\FINAL\UNIVERSAL BOOTLOADER\Bootloader Source\UNIFIED\PIC18F4550_UNIFIED\UNI_BL_4550\usb9.c
BootloaderUSBReceiveLoopDelay   0x000c04    program     extern C:\DBC-1200 LITE\FINAL\UNIVERSAL BOOTLOADER\Bootloader Source\UNIFIED\PIC18F4550_UNIFIED\UNI_BL_4550\main.c
                     main   0x000c4e    program     extern C:\DBC-1200 LITE\FINAL\UNIVERSAL BOOTLOADER\Bootloader Source\UNIFIED\PIC18F4550_UNIFIED\UNI_BL_4550\main.c
               __tmplbl_4   0x000c9c    program     static                          
               __tmplbl_3   0x000ca2    program     static                          
               __tmplbl_2   0x000caa    program     static                          
           ___if_lbl00010   0x000d04    program     static                          
               __tmplbl_6   0x000d08    program     static                          
               __tmplbl_5   0x000d0e    program     static                          
           ___if_lbl00012   0x000d12    program     static                          
         ___else_lbl00014   0x000d32    program     static                          
           ___if_lbl00013   0x000d38    program     static                          
               __tmplbl_8   0x000d40    program     static                          
               __tmplbl_7   0x000d4c    program     static                          
           ___if_lbl00016   0x000d50    program     static                          
        ___while_lbl00017   0x000d50    program     static                          
           ___if_lbl00019   0x000d8c    program     static                          
           ___if_lbl00020   0x000db6    program     static                          
        ___while_lbl00018   0x000db8    program     static                          
       ___return_lbl00007   0x000db8    program     static                          
         InitializeSystem   0x000dcc    program     static C:\DBC-1200 LITE\FINAL\UNIVERSAL BOOTLOADER\Bootloader Source\UNIFIED\PIC18F4550_UNIFIED\UNI_BL_4550\main.c
                 USBTasks   0x000de0    program     extern C:\DBC-1200 LITE\FINAL\UNIVERSAL BOOTLOADER\Bootloader Source\UNIFIED\PIC18F4550_UNIFIED\UNI_BL_4550\main.c
           BlinkUSBStatus   0x000de8    program     extern C:\DBC-1200 LITE\FINAL\UNIVERSAL BOOTLOADER\Bootloader Source\UNIFIED\PIC18F4550_UNIFIED\UNI_BL_4550\main.c
       USBCheckHIDRequest   0x000e14    program     extern C:\DBC-1200 LITE\FINAL\UNIVERSAL BOOTLOADER\Bootloader Source\UNIFIED\PIC18F4550_UNIFIED\UNI_BL_4550\hid.c
      HIDGetReportHandler   0x000ee2    program     extern C:\DBC-1200 LITE\FINAL\UNIVERSAL BOOTLOADER\Bootloader Source\UNIFIED\PIC18F4550_UNIFIED\UNI_BL_4550\hid.c
      HIDSetReportHandler   0x000ee4    program     extern C:\DBC-1200 LITE\FINAL\UNIVERSAL BOOTLOADER\Bootloader Source\UNIFIED\PIC18F4550_UNIFIED\UNI_BL_4550\hid.c
                HIDInitEP   0x000ee6    program     extern C:\DBC-1200 LITE\FINAL\UNIVERSAL BOOTLOADER\Bootloader Source\UNIFIED\PIC18F4550_UNIFIED\UNI_BL_4550\hid.c
              HIDTxReport   0x000f10    program     extern C:\DBC-1200 LITE\FINAL\UNIVERSAL BOOTLOADER\Bootloader Source\UNIFIED\PIC18F4550_UNIFIED\UNI_BL_4550\hid.c
              HIDRxReport   0x000f70    program     extern C:\DBC-1200 LITE\FINAL\UNIVERSAL BOOTLOADER\Bootloader Source\UNIFIED\PIC18F4550_UNIFIED\UNI_BL_4550\hid.c
                   __pa_0   0x000fda    program     static C:\DBC-1200 LITE\FINAL\UNIVERSAL BOOTLOADER\Bootloader Source\UNIFIED\PIC18F4550_UNIFIED\UNI_BL_4550\hid.c
                   __pa_1   0x000ff2    program     static C:\DBC-1200 LITE\FINAL\UNIVERSAL BOOTLOADER\Bootloader Source\UNIFIED\PIC18F4550_UNIFIED\UNI_BL_4550\hid.c
        USBCheckBusStatus   0x000ffa    program     extern C:\DBC-1200 LITE\FINAL\UNIVERSAL BOOTLOADER\Bootloader Source\UNIFIED\PIC18F4550_UNIFIED\UNI_BL_4550\usbdrv.c
          USBModuleEnable   0x001016    program     extern C:\DBC-1200 LITE\FINAL\UNIVERSAL BOOTLOADER\Bootloader Source\UNIFIED\PIC18F4550_UNIFIED\UNI_BL_4550\usbdrv.c
         USBDriverService   0x001024    program     extern C:\DBC-1200 LITE\FINAL\UNIVERSAL BOOTLOADER\Bootloader Source\UNIFIED\PIC18F4550_UNIFIED\UNI_BL_4550\usbdrv.c
               USBSuspend   0x00106a    program     extern C:\DBC-1200 LITE\FINAL\UNIVERSAL BOOTLOADER\Bootloader Source\UNIFIED\PIC18F4550_UNIFIED\UNI_BL_4550\usbdrv.c
       ___return_lbl00019   0x001078    program     static                          
       USBWakeFromSuspend   0x00107a    program     extern C:\DBC-1200 LITE\FINAL\UNIVERSAL BOOTLOADER\Bootloader Source\UNIFIED\PIC18F4550_UNIFIED\UNI_BL_4550\usbdrv.c
          USBStallHandler   0x001088    program     extern C:\DBC-1200 LITE\FINAL\UNIVERSAL BOOTLOADER\Bootloader Source\UNIFIED\PIC18F4550_UNIFIED\UNI_BL_4550\usbdrv.c
  USBProtocolResetHandler   0x0010a8    program     extern C:\DBC-1200 LITE\FINAL\UNIVERSAL BOOTLOADER\Bootloader Source\UNIFIED\PIC18F4550_UNIFIED\UNI_BL_4550\usbdrv.c
        ___while_lbl00028   0x0010ce    program     static                          
        ___while_lbl00029   0x0010dc    program     static                          
       ___return_lbl00027   0x0010f0    program     static                          
               ClearArray   0x0010f2    program     extern C:\DBC-1200 LITE\FINAL\UNIVERSAL BOOTLOADER\Bootloader Source\UNIFIED\PIC18F4550_UNIFIED\UNI_BL_4550\usbdrv.c
        ___while_lbl00031   0x001106    program     static                          
       ___return_lbl00030   0x001114    program     static                          
        ___while_lbl00032   0x001114    program     static                          
               device_dsc   0x00111c    program     extern C:\DBC-1200 LITE\FINAL\UNIVERSAL BOOTLOADER\Bootloader Source\UNIFIED\PIC18F4550_UNIFIED\UNI_BL_4550\usbdsc.c
                    cfg01   0x00112e    program     extern C:\DBC-1200 LITE\FINAL\UNIVERSAL BOOTLOADER\Bootloader Source\UNIFIED\PIC18F4550_UNIFIED\UNI_BL_4550\usbdsc.c
                    sd000   0x001157    program     extern C:\DBC-1200 LITE\FINAL\UNIVERSAL BOOTLOADER\Bootloader Source\UNIFIED\PIC18F4550_UNIFIED\UNI_BL_4550\usbdsc.c
                    sd001   0x00115b    program     extern C:\DBC-1200 LITE\FINAL\UNIVERSAL BOOTLOADER\Bootloader Source\UNIFIED\PIC18F4550_UNIFIED\UNI_BL_4550\usbdsc.c
                    sd002   0x001179    program     extern C:\DBC-1200 LITE\FINAL\UNIVERSAL BOOTLOADER\Bootloader Source\UNIFIED\PIC18F4550_UNIFIED\UNI_BL_4550\usbdsc.c
                hid_rpt01   0x0011a3    program     extern C:\DBC-1200 LITE\FINAL\UNIVERSAL BOOTLOADER\Bootloader Source\UNIFIED\PIC18F4550_UNIFIED\UNI_BL_4550\usbdsc.c
               USB_CD_Ptr   0x0011c0    program     extern C:\DBC-1200 LITE\FINAL\UNIVERSAL BOOTLOADER\Bootloader Source\UNIFIED\PIC18F4550_UNIFIED\UNI_BL_4550\usbdsc.c
               USB_SD_Ptr   0x0011c4    program     extern C:\DBC-1200 LITE\FINAL\UNIVERSAL BOOTLOADER\Bootloader Source\UNIFIED\PIC18F4550_UNIFIED\UNI_BL_4550\usbdsc.c
          ClassReqHandler   0x0011ca    program     extern C:\DBC-1200 LITE\FINAL\UNIVERSAL BOOTLOADER\Bootloader Source\UNIFIED\PIC18F4550_UNIFIED\UNI_BL_4550\usbdsc.c
                _do_cinit   0x0011cc    program     extern C:\MCC18\src\traditional\startup\c018i.c
                     test   0x0011e6    program     static                          
                copy_loop   0x00123e    program     static                          
            copy_one_byte   0x001244    program     static                          
             done_copying   0x001252    program     static                          
                     done   0x001268    program     static                          
       ___return_lbl00002   0x001268    program     static                          
            __zero_memory   0x00126a    program     extern C:\MCC18\src\traditional\proc\p18F4550.asm
                   loop_h   0x001278    program     static C:\MCC18\src\traditional\proc\p18F4550.asm
               zero_block   0x001278    program     static C:\MCC18\src\traditional\proc\p18F4550.asm
                compare_l   0x001280    program     static C:\MCC18\src\traditional\proc\p18F4550.asm
                   loop_l   0x001282    program     static C:\MCC18\src\traditional\proc\p18F4550.asm
                 _startup   0x00128a    program     extern C:\MCC18\src\traditional\startup\c018i.c
                     loop   0x00129a    program     static                          
       ___return_lbl00001   0x0012a4    program     static                          
                   __init   0x0012a6    program     extern C:\MCC18\src\traditional\stdclib\__init.c
               __config_0   0x300000    program     static C:\DBC-1200 LITE\FINAL\UNIVERSAL BOOTLOADER\Bootloader Source\UNIFIED\PIC18F4550_UNIFIED\UNI_BL_4550\main.c
               __config_1   0x300001    program     static C:\DBC-1200 LITE\FINAL\UNIVERSAL BOOTLOADER\Bootloader Source\UNIFIED\PIC18F4550_UNIFIED\UNI_BL_4550\main.c
               __config_2   0x300002    program     static C:\DBC-1200 LITE\FINAL\UNIVERSAL BOOTLOADER\Bootloader Source\UNIFIED\PIC18F4550_UNIFIED\UNI_BL_4550\main.c
               __config_3   0x300003    program     static C:\DBC-1200 LITE\FINAL\UNIVERSAL BOOTLOADER\Bootloader Source\UNIFIED\PIC18F4550_UNIFIED\UNI_BL_4550\main.c
               __config_4   0x300005    program     static C:\DBC-1200 LITE\FINAL\UNIVERSAL BOOTLOADER\Bootloader Source\UNIFIED\PIC18F4550_UNIFIED\UNI_BL_4550\main.c
               __config_5   0x300006    program     static C:\DBC-1200 LITE\FINAL\UNIVERSAL BOOTLOADER\Bootloader Source\UNIFIED\PIC18F4550_UNIFIED\UNI_BL_4550\main.c
               __config_6   0x300008    program     static C:\DBC-1200 LITE\FINAL\UNIVERSAL BOOTLOADER\Bootloader Source\UNIFIED\PIC18F4550_UNIFIED\UNI_BL_4550\main.c
               __config_7   0x300009    program     static C:\DBC-1200 LITE\FINAL\UNIVERSAL BOOTLOADER\Bootloader Source\UNIFIED\PIC18F4550_UNIFIED\UNI_BL_4550\main.c
               __config_8   0x30000a    program     static C:\DBC-1200 LITE\FINAL\UNIVERSAL BOOTLOADER\Bootloader Source\UNIFIED\PIC18F4550_UNIFIED\UNI_BL_4550\main.c
               __config_9   0x30000b    program     static C:\DBC-1200 LITE\FINAL\UNIVERSAL BOOTLOADER\Bootloader Source\UNIFIED\PIC18F4550_UNIFIED\UNI_BL_4550\main.c
              __config_10   0x30000c    program     static C:\DBC-1200 LITE\FINAL\UNIVERSAL BOOTLOADER\Bootloader Source\UNIFIED\PIC18F4550_UNIFIED\UNI_BL_4550\main.c
              __config_11   0x30000d    program     static C:\DBC-1200 LITE\FINAL\UNIVERSAL BOOTLOADER\Bootloader Source\UNIFIED\PIC18F4550_UNIFIED\UNI_BL_4550\main.c
                  __tmp_0   0x000000       data     static C:\DBC-1200 LITE\FINAL\UNIVERSAL BOOTLOADER\Bootloader Source\UNIFIED\PIC18F4550_UNIFIED\UNI_BL_4550\hid.c
                  __tmp_0   0x000000       data     static C:\DBC-1200 LITE\FINAL\UNIVERSAL BOOTLOADER\Bootloader Source\UNIFIED\PIC18F4550_UNIFIED\UNI_BL_4550\usb9.c
                  __tmp_0   0x000000       data     static C:\DBC-1200 LITE\FINAL\UNIVERSAL BOOTLOADER\Bootloader Source\UNIFIED\PIC18F4550_UNIFIED\UNI_BL_4550\BootPIC18NonJ.c
                  __tmp_0   0x000000       data     static C:\DBC-1200 LITE\FINAL\UNIVERSAL BOOTLOADER\Bootloader Source\UNIFIED\PIC18F4550_UNIFIED\UNI_BL_4550\usbctrltrf.c
                     SIGN   0x000003       data     extern C:\MCC18\src\traditional\math\cmath18.asm
                __FPFLAGS   0x000004       data     extern C:\MCC18\src\traditional\math\cmath18.asm
            __FPFLAGSbits   0x000004       data     extern C:\MCC18\src\traditional\math\cmath18.asm
    ProgramMemStopAddress   0x000060       data     extern C:\DBC-1200 LITE\FINAL\UNIVERSAL BOOTLOADER\Bootloader Source\UNIFIED\PIC18F4550_UNIFIED\UNI_BL_4550\BootPIC18NonJ.c
                BootState   0x000063       data     extern C:\DBC-1200 LITE\FINAL\UNIVERSAL BOOTLOADER\Bootloader Source\UNIFIED\PIC18F4550_UNIFIED\UNI_BL_4550\BootPIC18NonJ.c
         ErasePageTracker   0x000064       data     extern C:\DBC-1200 LITE\FINAL\UNIVERSAL BOOTLOADER\Bootloader Source\UNIFIED\PIC18F4550_UNIFIED\UNI_BL_4550\BootPIC18NonJ.c
        BufferedDataIndex   0x000066       data     extern C:\DBC-1200 LITE\FINAL\UNIVERSAL BOOTLOADER\Bootloader Source\UNIFIED\PIC18F4550_UNIFIED\UNI_BL_4550\BootPIC18NonJ.c
        ProgrammedPointer   0x000067       data     extern C:\DBC-1200 LITE\FINAL\UNIVERSAL BOOTLOADER\Bootloader Source\UNIFIED\PIC18F4550_UNIFIED\UNI_BL_4550\BootPIC18NonJ.c
         ConfigsLockValue   0x00006a       data     extern C:\DBC-1200 LITE\FINAL\UNIVERSAL BOOTLOADER\Bootloader Source\UNIFIED\PIC18F4550_UNIFIED\UNI_BL_4550\BootPIC18NonJ.c
        ProgrammingBuffer   0x00006b       data     extern C:\DBC-1200 LITE\FINAL\UNIVERSAL BOOTLOADER\Bootloader Source\UNIFIED\PIC18F4550_UNIFIED\UNI_BL_4550\BootPIC18NonJ.c
           ctrl_trf_state   0x0000ab       data     extern C:\DBC-1200 LITE\FINAL\UNIVERSAL BOOTLOADER\Bootloader Source\UNIFIED\PIC18F4550_UNIFIED\UNI_BL_4550\usbctrltrf.c
   ctrl_trf_session_owner   0x0000ac       data     extern C:\DBC-1200 LITE\FINAL\UNIVERSAL BOOTLOADER\Bootloader Source\UNIFIED\PIC18F4550_UNIFIED\UNI_BL_4550\usbctrltrf.c
                     pSrc   0x0000ad       data     extern C:\DBC-1200 LITE\FINAL\UNIVERSAL BOOTLOADER\Bootloader Source\UNIFIED\PIC18F4550_UNIFIED\UNI_BL_4550\usbctrltrf.c
                     pDst   0x0000af       data     extern C:\DBC-1200 LITE\FINAL\UNIVERSAL BOOTLOADER\Bootloader Source\UNIFIED\PIC18F4550_UNIFIED\UNI_BL_4550\usbctrltrf.c
                   wCount   0x0000b1       data     extern C:\DBC-1200 LITE\FINAL\UNIVERSAL BOOTLOADER\Bootloader Source\UNIFIED\PIC18F4550_UNIFIED\UNI_BL_4550\usbctrltrf.c
         short_pkt_status   0x0000b3       data     extern C:\DBC-1200 LITE\FINAL\UNIVERSAL BOOTLOADER\Bootloader Source\UNIFIED\PIC18F4550_UNIFIED\UNI_BL_4550\usbctrltrf.c
                  counter   0x0000b4       data     extern C:\DBC-1200 LITE\FINAL\UNIVERSAL BOOTLOADER\Bootloader Source\UNIFIED\PIC18F4550_UNIFIED\UNI_BL_4550\main.c
                led_count   0x0000b6       data     static C:\DBC-1200 LITE\FINAL\UNIVERSAL BOOTLOADER\Bootloader Source\UNIFIED\PIC18F4550_UNIFIED\UNI_BL_4550\main.c
                   Setbit   0x0000b8       data     extern C:\DBC-1200 LITE\FINAL\UNIVERSAL BOOTLOADER\Bootloader Source\UNIFIED\PIC18F4550_UNIFIED\UNI_BL_4550\BootPIC18NonJ.c
            ValidFirmware   0x0000ba       data     extern C:\DBC-1200 LITE\FINAL\UNIVERSAL BOOTLOADER\Bootloader Source\UNIFIED\PIC18F4550_UNIFIED\UNI_BL_4550\BootPIC18NonJ.c
                idle_rate   0x0000bc       data     extern C:\DBC-1200 LITE\FINAL\UNIVERSAL BOOTLOADER\Bootloader Source\UNIFIED\PIC18F4550_UNIFIED\UNI_BL_4550\hid.c
          active_protocol   0x0000bd       data     extern C:\DBC-1200 LITE\FINAL\UNIVERSAL BOOTLOADER\Bootloader Source\UNIFIED\PIC18F4550_UNIFIED\UNI_BL_4550\hid.c
           hid_rpt_rx_len   0x0000be       data     extern C:\DBC-1200 LITE\FINAL\UNIVERSAL BOOTLOADER\Bootloader Source\UNIFIED\PIC18F4550_UNIFIED\UNI_BL_4550\hid.c
             PacketFromPC   0x000370       data     extern C:\DBC-1200 LITE\FINAL\UNIVERSAL BOOTLOADER\Bootloader Source\UNIFIED\PIC18F4550_UNIFIED\UNI_BL_4550\BootPIC18NonJ.c
               PacketToPC   0x0003b0       data     extern C:\DBC-1200 LITE\FINAL\UNIVERSAL BOOTLOADER\Bootloader Source\UNIFIED\PIC18F4550_UNIFIED\UNI_BL_4550\BootPIC18NonJ.c
                     prom   0x0003f0       data     static C:\MCC18\src\traditional\startup\c018i.c
                curr_byte   0x0003f3       data     static C:\MCC18\src\traditional\startup\c018i.c
               curr_entry   0x0003f5       data     static C:\MCC18\src\traditional\startup\c018i.c
                 data_ptr   0x0003f7       data     static C:\MCC18\src\traditional\startup\c018i.c
         usb_device_state   0x0003fa       data     extern C:\DBC-1200 LITE\FINAL\UNIVERSAL BOOTLOADER\Bootloader Source\UNIFIED\PIC18F4550_UNIFIED\UNI_BL_4550\usbmmap.c
                 usb_stat   0x0003fb       data     extern C:\DBC-1200 LITE\FINAL\UNIVERSAL BOOTLOADER\Bootloader Source\UNIFIED\PIC18F4550_UNIFIED\UNI_BL_4550\usbmmap.c
           usb_active_cfg   0x0003fc       data     extern C:\DBC-1200 LITE\FINAL\UNIVERSAL BOOTLOADER\Bootloader Source\UNIFIED\PIC18F4550_UNIFIED\UNI_BL_4550\usbmmap.c
             usb_alt_intf   0x0003fd       data     extern C:\DBC-1200 LITE\FINAL\UNIVERSAL BOOTLOADER\Bootloader Source\UNIFIED\PIC18F4550_UNIFIED\UNI_BL_4550\usbmmap.c
              bTRNIFCount   0x0003fe       data     extern C:\DBC-1200 LITE\FINAL\UNIVERSAL BOOTLOADER\Bootloader Source\UNIFIED\PIC18F4550_UNIFIED\UNI_BL_4550\usbdrv.c
                    ep0Bo   0x000400       data     extern C:\DBC-1200 LITE\FINAL\UNIVERSAL BOOTLOADER\Bootloader Source\UNIFIED\PIC18F4550_UNIFIED\UNI_BL_4550\usbmmap.c
                    ep0Bi   0x000404       data     extern C:\DBC-1200 LITE\FINAL\UNIVERSAL BOOTLOADER\Bootloader Source\UNIFIED\PIC18F4550_UNIFIED\UNI_BL_4550\usbmmap.c
                    ep1Bo   0x000408       data     extern C:\DBC-1200 LITE\FINAL\UNIVERSAL BOOTLOADER\Bootloader Source\UNIFIED\PIC18F4550_UNIFIED\UNI_BL_4550\usbmmap.c
                    ep1Bi   0x00040c       data     extern C:\DBC-1200 LITE\FINAL\UNIVERSAL BOOTLOADER\Bootloader Source\UNIFIED\PIC18F4550_UNIFIED\UNI_BL_4550\usbmmap.c
                 SetupPkt   0x000410       data     extern C:\DBC-1200 LITE\FINAL\UNIVERSAL BOOTLOADER\Bootloader Source\UNIFIED\PIC18F4550_UNIFIED\UNI_BL_4550\usbmmap.c
              CtrlTrfData   0x000418       data     extern C:\DBC-1200 LITE\FINAL\UNIVERSAL BOOTLOADER\Bootloader Source\UNIFIED\PIC18F4550_UNIFIED\UNI_BL_4550\usbmmap.c
           hid_report_out   0x000420       data     extern C:\DBC-1200 LITE\FINAL\UNIVERSAL BOOTLOADER\Bootloader Source\UNIFIED\PIC18F4550_UNIFIED\UNI_BL_4550\usbmmap.c
            hid_report_in   0x000460       data     extern C:\DBC-1200 LITE\FINAL\UNIVERSAL BOOTLOADER\Bootloader Source\UNIFIED\PIC18F4550_UNIFIED\UNI_BL_4550\usbmmap.c
                  SPPDATA   0x000f62       data     extern C:\MCC18\src\traditional\proc\p18F4550.asm
               SPPCFGbits   0x000f63       data     extern C:\MCC18\src\traditional\proc\p18F4550.asm
                   SPPCFG   0x000f63       data     extern C:\MCC18\src\traditional\proc\p18F4550.asm
               SPPEPSbits   0x000f64       data     extern C:\MCC18\src\traditional\proc\p18F4550.asm
                   SPPEPS   0x000f64       data     extern C:\MCC18\src\traditional\proc\p18F4550.asm
                   SPPCON   0x000f65       data     extern C:\MCC18\src\traditional\proc\p18F4550.asm
               SPPCONbits   0x000f65       data     extern C:\MCC18\src\traditional\proc\p18F4550.asm
                UFRMLbits   0x000f66       data     extern C:\MCC18\src\traditional\proc\p18F4550.asm
                    UFRML   0x000f66       data     extern C:\MCC18\src\traditional\proc\p18F4550.asm
                     UFRM   0x000f66       data     extern C:\MCC18\src\traditional\proc\p18F4550.asm
                UFRMHbits   0x000f67       data     extern C:\MCC18\src\traditional\proc\p18F4550.asm
                    UFRMH   0x000f67       data     extern C:\MCC18\src\traditional\proc\p18F4550.asm
                  UIRbits   0x000f68       data     extern C:\MCC18\src\traditional\proc\p18F4550.asm
                      UIR   0x000f68       data     extern C:\MCC18\src\traditional\proc\p18F4550.asm
                  UIEbits   0x000f69       data     extern C:\MCC18\src\traditional\proc\p18F4550.asm
                      UIE   0x000f69       data     extern C:\MCC18\src\traditional\proc\p18F4550.asm
                 UEIRbits   0x000f6a       data     extern C:\MCC18\src\traditional\proc\p18F4550.asm
                     UEIR   0x000f6a       data     extern C:\MCC18\src\traditional\proc\p18F4550.asm
                 UEIEbits   0x000f6b       data     extern C:\MCC18\src\traditional\proc\p18F4550.asm
                     UEIE   0x000f6b       data     extern C:\MCC18\src\traditional\proc\p18F4550.asm
                    USTAT   0x000f6c       data     extern C:\MCC18\src\traditional\proc\p18F4550.asm
                USTATbits   0x000f6c       data     extern C:\MCC18\src\traditional\proc\p18F4550.asm
                 UCONbits   0x000f6d       data     extern C:\MCC18\src\traditional\proc\p18F4550.asm
                     UCON   0x000f6d       data     extern C:\MCC18\src\traditional\proc\p18F4550.asm
                    UADDR   0x000f6e       data     extern C:\MCC18\src\traditional\proc\p18F4550.asm
                UADDRbits   0x000f6e       data     extern C:\MCC18\src\traditional\proc\p18F4550.asm
                     UCFG   0x000f6f       data     extern C:\MCC18\src\traditional\proc\p18F4550.asm
                 UCFGbits   0x000f6f       data     extern C:\MCC18\src\traditional\proc\p18F4550.asm
                 UEP0bits   0x000f70       data     extern C:\MCC18\src\traditional\proc\p18F4550.asm
                     UEP0   0x000f70       data     extern C:\MCC18\src\traditional\proc\p18F4550.asm
                     UEP1   0x000f71       data     extern C:\MCC18\src\traditional\proc\p18F4550.asm
                 UEP1bits   0x000f71       data     extern C:\MCC18\src\traditional\proc\p18F4550.asm
                 UEP2bits   0x000f72       data     extern C:\MCC18\src\traditional\proc\p18F4550.asm
                     UEP2   0x000f72       data     extern C:\MCC18\src\traditional\proc\p18F4550.asm
                 UEP3bits   0x000f73       data     extern C:\MCC18\src\traditional\proc\p18F4550.asm
                     UEP3   0x000f73       data     extern C:\MCC18\src\traditional\proc\p18F4550.asm
                 UEP4bits   0x000f74       data     extern C:\MCC18\src\traditional\proc\p18F4550.asm
                     UEP4   0x000f74       data     extern C:\MCC18\src\traditional\proc\p18F4550.asm
                 UEP5bits   0x000f75       data     extern C:\MCC18\src\traditional\proc\p18F4550.asm
                     UEP5   0x000f75       data     extern C:\MCC18\src\traditional\proc\p18F4550.asm
                 UEP6bits   0x000f76       data     extern C:\MCC18\src\traditional\proc\p18F4550.asm
                     UEP6   0x000f76       data     extern C:\MCC18\src\traditional\proc\p18F4550.asm
                 UEP7bits   0x000f77       data     extern C:\MCC18\src\traditional\proc\p18F4550.asm
                     UEP7   0x000f77       data     extern C:\MCC18\src\traditional\proc\p18F4550.asm
                     UEP8   0x000f78       data     extern C:\MCC18\src\traditional\proc\p18F4550.asm
                 UEP8bits   0x000f78       data     extern C:\MCC18\src\traditional\proc\p18F4550.asm
                     UEP9   0x000f79       data     extern C:\MCC18\src\traditional\proc\p18F4550.asm
                 UEP9bits   0x000f79       data     extern C:\MCC18\src\traditional\proc\p18F4550.asm
                UEP10bits   0x000f7a       data     extern C:\MCC18\src\traditional\proc\p18F4550.asm
                    UEP10   0x000f7a       data     extern C:\MCC18\src\traditional\proc\p18F4550.asm
                UEP11bits   0x000f7b       data     extern C:\MCC18\src\traditional\proc\p18F4550.asm
                    UEP11   0x000f7b       data     extern C:\MCC18\src\traditional\proc\p18F4550.asm
                    UEP12   0x000f7c       data     extern C:\MCC18\src\traditional\proc\p18F4550.asm
                UEP12bits   0x000f7c       data     extern C:\MCC18\src\traditional\proc\p18F4550.asm
                    UEP13   0x000f7d       data     extern C:\MCC18\src\traditional\proc\p18F4550.asm
                UEP13bits   0x000f7d       data     extern C:\MCC18\src\traditional\proc\p18F4550.asm
                    UEP14   0x000f7e       data     extern C:\MCC18\src\traditional\proc\p18F4550.asm
                UEP14bits   0x000f7e       data     extern C:\MCC18\src\traditional\proc\p18F4550.asm
                    UEP15   0x000f7f       data     extern C:\MCC18\src\traditional\proc\p18F4550.asm
                UEP15bits   0x000f7f       data     extern C:\MCC18\src\traditional\proc\p18F4550.asm
                    PORTA   0x000f80       data     extern C:\MCC18\src\traditional\proc\p18F4550.asm
                PORTAbits   0x000f80       data     extern C:\MCC18\src\traditional\proc\p18F4550.asm
                    PORTB   0x000f81       data     extern C:\MCC18\src\traditional\proc\p18F4550.asm
                PORTBbits   0x000f81       data     extern C:\MCC18\src\traditional\proc\p18F4550.asm
                PORTCbits   0x000f82       data     extern C:\MCC18\src\traditional\proc\p18F4550.asm
                    PORTC   0x000f82       data     extern C:\MCC18\src\traditional\proc\p18F4550.asm
                PORTDbits   0x000f83       data     extern C:\MCC18\src\traditional\proc\p18F4550.asm
                    PORTD   0x000f83       data     extern C:\MCC18\src\traditional\proc\p18F4550.asm
                PORTEbits   0x000f84       data     extern C:\MCC18\src\traditional\proc\p18F4550.asm
                    PORTE   0x000f84       data     extern C:\MCC18\src\traditional\proc\p18F4550.asm
                 LATAbits   0x000f89       data     extern C:\MCC18\src\traditional\proc\p18F4550.asm
                     LATA   0x000f89       data     extern C:\MCC18\src\traditional\proc\p18F4550.asm
                     LATB   0x000f8a       data     extern C:\MCC18\src\traditional\proc\p18F4550.asm
                 LATBbits   0x000f8a       data     extern C:\MCC18\src\traditional\proc\p18F4550.asm
                 LATCbits   0x000f8b       data     extern C:\MCC18\src\traditional\proc\p18F4550.asm
                     LATC   0x000f8b       data     extern C:\MCC18\src\traditional\proc\p18F4550.asm
                 LATDbits   0x000f8c       data     extern C:\MCC18\src\traditional\proc\p18F4550.asm
                     LATD   0x000f8c       data     extern C:\MCC18\src\traditional\proc\p18F4550.asm
                     LATE   0x000f8d       data     extern C:\MCC18\src\traditional\proc\p18F4550.asm
                 LATEbits   0x000f8d       data     extern C:\MCC18\src\traditional\proc\p18F4550.asm
                 DDRAbits   0x000f92       data     extern C:\MCC18\src\traditional\proc\p18F4550.asm
                     DDRA   0x000f92       data     extern C:\MCC18\src\traditional\proc\p18F4550.asm
                TRISAbits   0x000f92       data     extern C:\MCC18\src\traditional\proc\p18F4550.asm
                    TRISA   0x000f92       data     extern C:\MCC18\src\traditional\proc\p18F4550.asm
                TRISBbits   0x000f93       data     extern C:\MCC18\src\traditional\proc\p18F4550.asm
                    TRISB   0x000f93       data     extern C:\MCC18\src\traditional\proc\p18F4550.asm
                 DDRBbits   0x000f93       data     extern C:\MCC18\src\traditional\proc\p18F4550.asm
                     DDRB   0x000f93       data     extern C:\MCC18\src\traditional\proc\p18F4550.asm
                TRISCbits   0x000f94       data     extern C:\MCC18\src\traditional\proc\p18F4550.asm
                    TRISC   0x000f94       data     extern C:\MCC18\src\traditional\proc\p18F4550.asm
                 DDRCbits   0x000f94       data     extern C:\MCC18\src\traditional\proc\p18F4550.asm
                     DDRC   0x000f94       data     extern C:\MCC18\src\traditional\proc\p18F4550.asm
                     DDRD   0x000f95       data     extern C:\MCC18\src\traditional\proc\p18F4550.asm
                 DDRDbits   0x000f95       data     extern C:\MCC18\src\traditional\proc\p18F4550.asm
                    TRISD   0x000f95       data     extern C:\MCC18\src\traditional\proc\p18F4550.asm
                TRISDbits   0x000f95       data     extern C:\MCC18\src\traditional\proc\p18F4550.asm
                 DDREbits   0x000f96       data     extern C:\MCC18\src\traditional\proc\p18F4550.asm
                     DDRE   0x000f96       data     extern C:\MCC18\src\traditional\proc\p18F4550.asm
                    TRISE   0x000f96       data     extern C:\MCC18\src\traditional\proc\p18F4550.asm
                TRISEbits   0x000f96       data     extern C:\MCC18\src\traditional\proc\p18F4550.asm
                  OSCTUNE   0x000f9b       data     extern C:\MCC18\src\traditional\proc\p18F4550.asm
              OSCTUNEbits   0x000f9b       data     extern C:\MCC18\src\traditional\proc\p18F4550.asm
                     PIE1   0x000f9d       data     extern C:\MCC18\src\traditional\proc\p18F4550.asm
                 PIE1bits   0x000f9d       data     extern C:\MCC18\src\traditional\proc\p18F4550.asm
                     PIR1   0x000f9e       data     extern C:\MCC18\src\traditional\proc\p18F4550.asm
                 PIR1bits   0x000f9e       data     extern C:\MCC18\src\traditional\proc\p18F4550.asm
                     IPR1   0x000f9f       data     extern C:\MCC18\src\traditional\proc\p18F4550.asm
                 IPR1bits   0x000f9f       data     extern C:\MCC18\src\traditional\proc\p18F4550.asm
                 PIE2bits   0x000fa0       data     extern C:\MCC18\src\traditional\proc\p18F4550.asm
                     PIE2   0x000fa0       data     extern C:\MCC18\src\traditional\proc\p18F4550.asm
                 PIR2bits   0x000fa1       data     extern C:\MCC18\src\traditional\proc\p18F4550.asm
                     PIR2   0x000fa1       data     extern C:\MCC18\src\traditional\proc\p18F4550.asm
                     IPR2   0x000fa2       data     extern C:\MCC18\src\traditional\proc\p18F4550.asm
                 IPR2bits   0x000fa2       data     extern C:\MCC18\src\traditional\proc\p18F4550.asm
                   EECON1   0x000fa6       data     extern C:\MCC18\src\traditional\proc\p18F4550.asm
               EECON1bits   0x000fa6       data     extern C:\MCC18\src\traditional\proc\p18F4550.asm
                   EECON2   0x000fa7       data     extern C:\MCC18\src\traditional\proc\p18F4550.asm
                   EEDATA   0x000fa8       data     extern C:\MCC18\src\traditional\proc\p18F4550.asm
                    EEADR   0x000fa9       data     extern C:\MCC18\src\traditional\proc\p18F4550.asm
                    RCSTA   0x000fab       data     extern C:\MCC18\src\traditional\proc\p18F4550.asm
                RCSTAbits   0x000fab       data     extern C:\MCC18\src\traditional\proc\p18F4550.asm
                TXSTAbits   0x000fac       data     extern C:\MCC18\src\traditional\proc\p18F4550.asm
                    TXSTA   0x000fac       data     extern C:\MCC18\src\traditional\proc\p18F4550.asm
                    TXREG   0x000fad       data     extern C:\MCC18\src\traditional\proc\p18F4550.asm
                    RCREG   0x000fae       data     extern C:\MCC18\src\traditional\proc\p18F4550.asm
                    SPBRG   0x000faf       data     extern C:\MCC18\src\traditional\proc\p18F4550.asm
                   SPBRGH   0x000fb0       data     extern C:\MCC18\src\traditional\proc\p18F4550.asm
                    T3CON   0x000fb1       data     extern C:\MCC18\src\traditional\proc\p18F4550.asm
                T3CONbits   0x000fb1       data     extern C:\MCC18\src\traditional\proc\p18F4550.asm
                    TMR3L   0x000fb2       data     extern C:\MCC18\src\traditional\proc\p18F4550.asm
                    TMR3H   0x000fb3       data     extern C:\MCC18\src\traditional\proc\p18F4550.asm
                CMCONbits   0x000fb4       data     extern C:\MCC18\src\traditional\proc\p18F4550.asm
                    CMCON   0x000fb4       data     extern C:\MCC18\src\traditional\proc\p18F4550.asm
               CVRCONbits   0x000fb5       data     extern C:\MCC18\src\traditional\proc\p18F4550.asm
                   CVRCON   0x000fb5       data     extern C:\MCC18\src\traditional\proc\p18F4550.asm
                  ECCP1AS   0x000fb6       data     extern C:\MCC18\src\traditional\proc\p18F4550.asm
              ECCP1ASbits   0x000fb6       data     extern C:\MCC18\src\traditional\proc\p18F4550.asm
                   CCP1AS   0x000fb6       data     extern C:\MCC18\src\traditional\proc\p18F4550.asm
               CCP1ASbits   0x000fb6       data     extern C:\MCC18\src\traditional\proc\p18F4550.asm
                 ECCP1DEL   0x000fb7       data     extern C:\MCC18\src\traditional\proc\p18F4550.asm
             ECCP1DELbits   0x000fb7       data     extern C:\MCC18\src\traditional\proc\p18F4550.asm
                  CCP1DEL   0x000fb7       data     extern C:\MCC18\src\traditional\proc\p18F4550.asm
              CCP1DELbits   0x000fb7       data     extern C:\MCC18\src\traditional\proc\p18F4550.asm
                  BAUDCON   0x000fb8       data     extern C:\MCC18\src\traditional\proc\p18F4550.asm
              BAUDCONbits   0x000fb8       data     extern C:\MCC18\src\traditional\proc\p18F4550.asm
              CCP2CONbits   0x000fba       data     extern C:\MCC18\src\traditional\proc\p18F4550.asm
                  CCP2CON   0x000fba       data     extern C:\MCC18\src\traditional\proc\p18F4550.asm
                    CCPR2   0x000fbb       data     extern C:\MCC18\src\traditional\proc\p18F4550.asm
                   CCPR2L   0x000fbb       data     extern C:\MCC18\src\traditional\proc\p18F4550.asm
                   CCPR2H   0x000fbc       data     extern C:\MCC18\src\traditional\proc\p18F4550.asm
                 ECCP1CON   0x000fbd       data     extern C:\MCC18\src\traditional\proc\p18F4550.asm
             ECCP1CONbits   0x000fbd       data     extern C:\MCC18\src\traditional\proc\p18F4550.asm
                  CCP1CON   0x000fbd       data     extern C:\MCC18\src\traditional\proc\p18F4550.asm
              CCP1CONbits   0x000fbd       data     extern C:\MCC18\src\traditional\proc\p18F4550.asm
                   CCPR1L   0x000fbe       data     extern C:\MCC18\src\traditional\proc\p18F4550.asm
                    CCPR1   0x000fbe       data     extern C:\MCC18\src\traditional\proc\p18F4550.asm
                   CCPR1H   0x000fbf       data     extern C:\MCC18\src\traditional\proc\p18F4550.asm
               ADCON2bits   0x000fc0       data     extern C:\MCC18\src\traditional\proc\p18F4550.asm
                   ADCON2   0x000fc0       data     extern C:\MCC18\src\traditional\proc\p18F4550.asm
               ADCON1bits   0x000fc1       data     extern C:\MCC18\src\traditional\proc\p18F4550.asm
                   ADCON1   0x000fc1       data     extern C:\MCC18\src\traditional\proc\p18F4550.asm
                   ADCON0   0x000fc2       data     extern C:\MCC18\src\traditional\proc\p18F4550.asm
               ADCON0bits   0x000fc2       data     extern C:\MCC18\src\traditional\proc\p18F4550.asm
                    ADRES   0x000fc3       data     extern C:\MCC18\src\traditional\proc\p18F4550.asm
                   ADRESL   0x000fc3       data     extern C:\MCC18\src\traditional\proc\p18F4550.asm
                   ADRESH   0x000fc4       data     extern C:\MCC18\src\traditional\proc\p18F4550.asm
                  SSPCON2   0x000fc5       data     extern C:\MCC18\src\traditional\proc\p18F4550.asm
              SSPCON2bits   0x000fc5       data     extern C:\MCC18\src\traditional\proc\p18F4550.asm
              SSPCON1bits   0x000fc6       data     extern C:\MCC18\src\traditional\proc\p18F4550.asm
                  SSPCON1   0x000fc6       data     extern C:\MCC18\src\traditional\proc\p18F4550.asm
                  SSPSTAT   0x000fc7       data     extern C:\MCC18\src\traditional\proc\p18F4550.asm
              SSPSTATbits   0x000fc7       data     extern C:\MCC18\src\traditional\proc\p18F4550.asm
                   SSPADD   0x000fc8       data     extern C:\MCC18\src\traditional\proc\p18F4550.asm
                   SSPBUF   0x000fc9       data     extern C:\MCC18\src\traditional\proc\p18F4550.asm
                    T2CON   0x000fca       data     extern C:\MCC18\src\traditional\proc\p18F4550.asm
                T2CONbits   0x000fca       data     extern C:\MCC18\src\traditional\proc\p18F4550.asm
                      PR2   0x000fcb       data     extern C:\MCC18\src\traditional\proc\p18F4550.asm
                     TMR2   0x000fcc       data     extern C:\MCC18\src\traditional\proc\p18F4550.asm
                T1CONbits   0x000fcd       data     extern C:\MCC18\src\traditional\proc\p18F4550.asm
                    T1CON   0x000fcd       data     extern C:\MCC18\src\traditional\proc\p18F4550.asm
                    TMR1L   0x000fce       data     extern C:\MCC18\src\traditional\proc\p18F4550.asm
                    TMR1H   0x000fcf       data     extern C:\MCC18\src\traditional\proc\p18F4550.asm
                     RCON   0x000fd0       data     extern C:\MCC18\src\traditional\proc\p18F4550.asm
                 RCONbits   0x000fd0       data     extern C:\MCC18\src\traditional\proc\p18F4550.asm
                   WDTCON   0x000fd1       data     extern C:\MCC18\src\traditional\proc\p18F4550.asm
               WDTCONbits   0x000fd1       data     extern C:\MCC18\src\traditional\proc\p18F4550.asm
              HLVDCONbits   0x000fd2       data     extern C:\MCC18\src\traditional\proc\p18F4550.asm
                   LVDCON   0x000fd2       data     extern C:\MCC18\src\traditional\proc\p18F4550.asm
                  HLVDCON   0x000fd2       data     extern C:\MCC18\src\traditional\proc\p18F4550.asm
               LVDCONbits   0x000fd2       data     extern C:\MCC18\src\traditional\proc\p18F4550.asm
                   OSCCON   0x000fd3       data     extern C:\MCC18\src\traditional\proc\p18F4550.asm
               OSCCONbits   0x000fd3       data     extern C:\MCC18\src\traditional\proc\p18F4550.asm
                T0CONbits   0x000fd5       data     extern C:\MCC18\src\traditional\proc\p18F4550.asm
                    T0CON   0x000fd5       data     extern C:\MCC18\src\traditional\proc\p18F4550.asm
                    TMR0L   0x000fd6       data     extern C:\MCC18\src\traditional\proc\p18F4550.asm
                    TMR0H   0x000fd7       data     extern C:\MCC18\src\traditional\proc\p18F4550.asm
                   STATUS   0x000fd8       data     extern C:\MCC18\src\traditional\proc\p18F4550.asm
               STATUSbits   0x000fd8       data     extern C:\MCC18\src\traditional\proc\p18F4550.asm
                    FSR2L   0x000fd9       data     extern C:\MCC18\src\traditional\proc\p18F4550.asm
                     FSR2   0x000fd9       data     extern C:\MCC18\src\traditional\proc\p18F4550.asm
                    FSR2H   0x000fda       data     extern C:\MCC18\src\traditional\proc\p18F4550.asm
                   PLUSW2   0x000fdb       data     extern C:\MCC18\src\traditional\proc\p18F4550.asm
                  PREINC2   0x000fdc       data     extern C:\MCC18\src\traditional\proc\p18F4550.asm
                 POSTDEC2   0x000fdd       data     extern C:\MCC18\src\traditional\proc\p18F4550.asm
                 POSTINC2   0x000fde       data     extern C:\MCC18\src\traditional\proc\p18F4550.asm
                    INDF2   0x000fdf       data     extern C:\MCC18\src\traditional\proc\p18F4550.asm
                      BSR   0x000fe0       data     extern C:\MCC18\src\traditional\proc\p18F4550.asm
                     FSR1   0x000fe1       data     extern C:\MCC18\src\traditional\proc\p18F4550.asm
                    FSR1L   0x000fe1       data     extern C:\MCC18\src\traditional\proc\p18F4550.asm
                    FSR1H   0x000fe2       data     extern C:\MCC18\src\traditional\proc\p18F4550.asm
                   PLUSW1   0x000fe3       data     extern C:\MCC18\src\traditional\proc\p18F4550.asm
                  PREINC1   0x000fe4       data     extern C:\MCC18\src\traditional\proc\p18F4550.asm
                 POSTDEC1   0x000fe5       data     extern C:\MCC18\src\traditional\proc\p18F4550.asm
                 POSTINC1   0x000fe6       data     extern C:\MCC18\src\traditional\proc\p18F4550.asm
                    INDF1   0x000fe7       data     extern C:\MCC18\src\traditional\proc\p18F4550.asm
                     WREG   0x000fe8       data     extern C:\MCC18\src\traditional\proc\p18F4550.asm
                    FSR0L   0x000fe9       data     extern C:\MCC18\src\traditional\proc\p18F4550.asm
                     FSR0   0x000fe9       data     extern C:\MCC18\src\traditional\proc\p18F4550.asm
                    FSR0H   0x000fea       data     extern C:\MCC18\src\traditional\proc\p18F4550.asm
                   PLUSW0   0x000feb       data     extern C:\MCC18\src\traditional\proc\p18F4550.asm
                  PREINC0   0x000fec       data     extern C:\MCC18\src\traditional\proc\p18F4550.asm
                 POSTDEC0   0x000fed       data     extern C:\MCC18\src\traditional\proc\p18F4550.asm
                 POSTINC0   0x000fee       data     extern C:\MCC18\src\traditional\proc\p18F4550.asm
                    INDF0   0x000fef       data     extern C:\MCC18\src\traditional\proc\p18F4550.asm
              INTCON3bits   0x000ff0       data     extern C:\MCC18\src\traditional\proc\p18F4550.asm
                  INTCON3   0x000ff0       data     extern C:\MCC18\src\traditional\proc\p18F4550.asm
                  INTCON2   0x000ff1       data     extern C:\MCC18\src\traditional\proc\p18F4550.asm
              INTCON2bits   0x000ff1       data     extern C:\MCC18\src\traditional\proc\p18F4550.asm
               INTCONbits   0x000ff2       data     extern C:\MCC18\src\traditional\proc\p18F4550.asm
                   INTCON   0x000ff2       data     extern C:\MCC18\src\traditional\proc\p18F4550.asm
                     PROD   0x000ff3       data     extern C:\MCC18\src\traditional\proc\p18F4550.asm
                    PRODL   0x000ff3       data     extern C:\MCC18\src\traditional\proc\p18F4550.asm
                    PRODH   0x000ff4       data     extern C:\MCC18\src\traditional\proc\p18F4550.asm
                   TABLAT   0x000ff5       data     extern C:\MCC18\src\traditional\proc\p18F4550.asm
                  TBLPTRL   0x000ff6       data     extern C:\MCC18\src\traditional\proc\p18F4550.asm
                   TBLPTR   0x000ff6       data     extern C:\MCC18\src\traditional\proc\p18F4550.asm
                  TBLPTRH   0x000ff7       data     extern C:\MCC18\src\traditional\proc\p18F4550.asm
                  TBLPTRU   0x000ff8       data     extern C:\MCC18\src\traditional\proc\p18F4550.asm
                       PC   0x000ff9       data     extern C:\MCC18\src\traditional\proc\p18F4550.asm
                      PCL   0x000ff9       data     extern C:\MCC18\src\traditional\proc\p18F4550.asm
                   PCLATH   0x000ffa       data     extern C:\MCC18\src\traditional\proc\p18F4550.asm
                   PCLATU   0x000ffb       data     extern C:\MCC18\src\traditional\proc\p18F4550.asm
               STKPTRbits   0x000ffc       data     extern C:\MCC18\src\traditional\proc\p18F4550.asm
                   STKPTR   0x000ffc       data     extern C:\MCC18\src\traditional\proc\p18F4550.asm
                      TOS   0x000ffd       data     extern C:\MCC18\src\traditional\proc\p18F4550.asm
                     TOSL   0x000ffd       data     extern C:\MCC18\src\traditional\proc\p18F4550.asm
                     TOSH   0x000ffe       data     extern C:\MCC18\src\traditional\proc\p18F4550.asm
                     TOSU   0x000fff       data     extern C:\MCC18\src\traditional\proc\p18F4550.asm


